:020000040800F2
:10000000E013002065020008091300088D030008B2
:1000100005130008AD0700083515000800000000B2
:10002000000000000000000000000000770200084F
:10003000B107000800000000D30200080D130008FB
:100040007F0200087F0200087F0200087F0200088C
:100050007F0200087F0200087F0200087F0200087C
:100060007F0200087F0200087F0200087F0200086C
:100070007F0200087F0200087F0200087F0200085C
:100080007F0200087F0200087F02000800000000D5
:100090000000000000000000000000007F020008D7
:1000A0007F0200087F0200087F0200087F0200082C
:1000B0007F0200087F0200087F0200087F0200081C
:1000C0007F0200087F0200087F0200087F0200080C
:1000D0007F0200087F0200087F0200080000000085
:1000E0007F0200087F0200087F0200080000000075
:1000F0000000000000000000000000007F02000877
:10010000000000007F0200087F0200087F02000854
:1001100000000000000000000000000000000000DF
:100120007F0200087F0200087F0200087F020008AB
:100130007F02000800000000000000000000000036
:100140000000000000000000000000007F02000826
:100150007F0200087F0200087F0200087F0200087B
:100160007F0200087F02000800000000000000007D
:10017000000000000000000000000000000000007F
:10018000000000007F0200080000000000000000E6
:100190007F0200087F02000800F002F800F052F829
:1001A00014A696E8000CB244B344DA4501D100F03D
:1001B00049F8BAE80F000FA696E83000A5EB040551
:1001C00004EB0607AAEB0704A7F101074FEA151590
:1001D0004FEA3414A4F10104AC4201D300F032F828
:1001E00013F0010F18BFFB1A43F0010300F001F8F0
:1001F000DBE718471C5600003C560000103A24BFAD
:1002000078C878C1FAD8520724BF30C830C144BF7B
:1002100004680C6070470000704700000023002451
:1002200000250026103A28BF78C1FBD8520728BF06
:1002300030C148BF0B6070471FB505F018F81FBDEF
:1002400010B510BD00F046FA1146FFF7F5FF00F0BB
:1002500077FA00F064FA03B4FFF7F2FF03BC00F092
:1002600067FA00000948804709480047FEE7FEE7B3
:10027000FEE7FEE7FEE7FEE7FEE7FEE7FEE7FEE756
:1002800004480549054A064B704700003914000828
:1002900099010008E00D0020E0130020E00F00208D
:1002A000E00F0020EFF3108072B6704780F31088E3
:1002B0007047444A1368012B04D04FF001031360C8
:1002C000414A1060414A116041484FF0805101603D
:1002D0007047EFF3108272B63A48016851B34FF09D
:1002E000000101603848016891B1EFF309811EF007
:1002F000100F08BF21ED108B21E9F00F4FF0000423
:100300001EF0100F08BF012441F8044D0068016081
:100310002E490968096808C9B1E8F00F002B18BF19
:10032000B1EC108B81F309884EF0100E002B18BF32
:100330002EF0100E82F310884EF0040E7047234901
:100340000860EFF3148222F0040282F314881E493D
:100350004FF0000008601B494FF0010008601D4885
:100360001D49D0F8002041EA0201016018484FF011
:100370008051016019480068006880F3088861B600
:1003800062B6BFF34F8FBFF36F8F70471EF0040F3D
:100390000CBFEFF30880EFF3098020E9F00F40F87D
:1003A00004ED40F804ED1EF0040F0CBF80F3088844
:1003B00080F3098800B503F03BF85DF804EB4EF0DC
:1003C000040E7047D00D0020C40B0020CC0B002081
:1003D00004ED00E020ED00E00000FFFF08ED00E08C
:1003E00053EA020C00F069802DE9F04B4FF0000653
:1003F000002B1FBFB3FA83F503FA05F424FA05F6C0
:100400005E4012BF1643B2FA82F502FA05F4C5F156
:1004100020051EBF22FA05FC44EA0C04203556EAEA
:10042000044C4FEA144418BF641C4FF000084FF00E
:100430000009904271EB030C39D3002919BFB1FABE
:1004400081F701FA07F6B0FA80F700FA07F6C7F16C
:1004500020071EBF20FA07FC46EA0C062037B6FB31
:10046000F4FCA7EB0507103F07F01F0BCBF12006AC
:100470002CFA06F60CFA0BFB44BFB3460026202FDD
:10048000A4BF5E464FF0000B5BEA060C08BF4FF0BE
:10049000010B19EB0B0948EB0608ABFB027C06FBD2
:1004A00002CC0BFB03CCC01B71EB0C01C1E70B466C
:1004B000024641464846BDE8F08B13B5084318BFD5
:1004C0004FF0FF300146AFF30080BDE81C4070479D
:1004D00010B5431C02E010F8011B71B18107FAD17D
:1004E0004FF0013202C88C1A8C4314EAC211F9D0C1
:1004F000C01A0A0603D0C01E10BDC01A10BD0A04DF
:1005000001D0801E10BD0902FCD0401E10BD40EA83
:10051000010370B59B072ED14FF00136042A2AD370
:1005200008C810C99D1B9D43121F15EAC61517D098
:10053000D8B2E1B2401A50EA056110D198B2A1B226
:10054000401A50EA05410AD123F07F4024F07F4150
:10055000401A50EA052102D1180EA0EB146070BDBC
:10056000A342DBD018BA21BA884201D9012070BD5C
:100570004FF0FF3070BD0AB9002070BD10F8013B8C
:1005800011F8014B63B1A3420AD1521E08D010F8F2
:10059000013B11F8014B1BB1A34201D1521EEDD119
:1005A000181B70BD02F0FF0343EA032242EA024235
:1005B00000F002B84FF000020429C0F0128010F0E1
:1005C000030C00F01B80CCF1040CBCF1020F18BF2F
:1005D00000F8012BA8BF20F8022BA1EB0C0100F0C2
:1005E0000DB85FEAC17C24BF00F8012B00F8012B95
:1005F00048BF00F8012B70474FF0000200B51346CA
:1006000094469646203922BFA0E80C50A0E80C5032
:10061000B1F12001BFF4F7AF090728BFA0E80C50E3
:1006200048BF0CC05DF804EB890028BF40F8042BDC
:1006300008BF704748BF20F8022B11F0804F18BF49
:1006400000F8012B7047000030B44FF0013C50F827
:10065000042B51F8043BCCFA52F4D51A20D1FCB942
:1006600050F8042B51F8043BCCFA52F4D51A17D1A8
:10067000B4B950F8042B51F8043BCCFA52F4D51A13
:100680000ED16CB950F8042B51F8043BCCFA52F45B
:10069000D51A05D1002CDAD030BC4FF000007047DD
:1006A00029BAB1FA81F111F01801D1F1200084408A
:1006B000F2D1CA40CB4012F0FF0213F0FF0330BC6E
:1006C000D01A704770477047704700000048704765
:1006D000480000207546FFF7F9FFAE460500694661
:1006E000534620F00700854618B020B5FFF7C8FD37
:1006F000BDE820404FF000064FF000074FF0000823
:100700004FF0000BAC46ACE8C009ACE8C009ACE85F
:10071000C009ACE8C00921F007018D46704710B54B
:100720000446AFF300802046BDE81040FFF793BDBC
:1007300001491820ABBEFEE726000200704700000A
:1007400010B584B0FFF7AEFD02F00CFE03F0A4FC80
:1007500003F064FE03F0A0FD40F248724FF48061A4
:10076000C2F2000240F648340A20CDE90021C2F26C
:10077000000445F2377142F2B9724FF0140C029046
:10078000C0F60001C0F6000220460023CDF80CC0E0
:1007900003F0B4FE204603F043FF03F047FE03F0EE
:1007A00081FE03F007FE002004B010BDFEE700004C
:1007B000704700002DE9F04F83B000F1200200F1F6
:1007C0003E4741F20005009207F1FF77C4F20205AF
:1007D00007224FEAB726A84208BF042200254FF09F
:1007E00000084FF00009042E38BF4FEAB7220192EB
:1007F0000AE000BF09F1010908F10208B9F1100F80
:1008000005F1040500F0A2800F68012202FA09FE3A
:1008100017EA0E0AEED0D1F804C003220CF0030749
:100820007E1E02FA08F4012E6FEA040B12D88468C7
:10083000CE6804EA0B0406FA08F634438460446880
:1008400024EA0E06CCF3001404FA09F426434660A9
:1008500004E000BF032F01D103271EE0C6688C68A7
:1008600006EA0B0604FA08F42643022FC66014D1E8
:100870006FF00302009E02EA590756F807C005F020
:100880001C040F220B69A2402CEA0202A3401A4367
:10089000F251D1F804C00CF00307026807FA08F31C
:1008A00002EA0B021A431CF4403F0260A2D000226D
:1008B00043F644030292C4F202031A6843F600446A
:1008C00042F480421A601A68C4F2010402F48042C1
:1008D0000292029A29F003024FF6084C2244CFF606
:1008E000FF7C52F80C3005F00C070F26BE40B343D6
:1008F000019E06FA07F73B4342F80C30A2684B68AA
:1009000042EA0A0743F60C4CDE0258BF22EA0A0705
:10091000A760C4F2010CDCF800209E0242EA0A073C
:1009200058BF22EA0A07CCF8007062689E0342EAC8
:100930000A0758BF22EA0A0767602268DB0342EA17
:100940000A0758BF22EA0A07276053E703B0BDE849
:10095000F08F000040F6D850C2F2000000687047E7
:1009600080B543F60040C4F20200016841F4007112
:100970000160016841F480610160016841F48071A7
:100980000160032000F074F8002000F005F800F08A
:1009900027F8002080BD000070B540F20006C2F2CA
:1009A000000640F208013278C2F200014FF47A7377
:1009B0000968B3FBF2F20446B1FBF2F1084600F01D
:1009C00055FB0F2C4FF0010508D838B94FF0FF3018
:1009D00021460022002500F01FF87460284670BDF3
:1009E00082B0002043F640010190C4F202014A683F
:1009F00042F480424A604A6802F480420192019ABD
:100A00000090086840F080500860086800F080504E
:100A10000090009802B0704710B54EF60C5CCEF214
:100A2000000CDCF80030C3F3022E8EF00704042C17
:100A300028BF0424BEF103034FF0FF3E0EFA04F476
:100A400038BF0023A14399400EFA03F39A431143A0
:100A500000F00F0200F160430901043A03F564431A
:100A60006244002848BF02F10C03197010BD000059
:100A70004EF60C51CEF200010A684FF6FF031A4001
:100A800060F30A2242F0806040F0FD700860704719
:100A9000002804BF012070472DE9F04143F6080803
:100AA000C4F202080446D8F8F8030D4600F0070027
:100AB000814207D988F8F853D8F8F80300F0070006
:100AC000A84277D12068810717D5410705D5D8F806
:100AD000001041F4E051C8F80010010705D5D8F81E
:100AE000001041F46041C8F80010D8F80010A26866
:100AF00021F0F0011143C8F80010C00740D1D8F828
:100B0000F80300F00700854207D288F8F853D8F8B8
:100B1000F80300F00700A8424CD12068410707D530
:100B2000D8F80010E26821F4E0511143C8F8001031
:100B3000000708D5D8F80000216920F4604040EA99
:100B4000C100C8F8000000F083F8D8F8001045F2A2
:100B50008822C1F30311C0F60002515C40F2080282
:100B600020FA01F140F20400C2F200000068C2F273
:100B700000021160FFF710FF0020BDE8F08100BF08
:100B80006068811E022907D258F8081C89015CBFE1
:100B90000120BDE8F08111E0012807D158F8081CB8
:100BA00089035CBF0120BDE8F08107E058F8081C0C
:100BB000890703D40120BDE8F08100BFD8F80010F8
:100BC00021F003010843C8F80000FFF7C3FE064602
:100BD00041F28837D8F80000616800F00C00B0EBF3
:100BE000810F8CD0FFF7B6FE801BB842F2D90320EC
:100BF000BDE8F08140F20800C2F2000000687047D2
:100C000040F2080043F60801C2F20000C4F20201FB
:100C10000068096845F29822C1F38221C0F60002FB
:100C2000515CC8407047000040F2080043F60801DC
:100C3000C2F20000C4F202010068096845F298227D
:100C4000C1F34231C0F60002515CC8407047000059
:100C500010B543F60404C4F202046168C1F38101D3
:100C600042F20040C0F2F400DFE801F002040A02A0
:100C700010BD00BF47F64000C0F27D1010BD00BFA0
:100C8000206821682368490247F64001C0F27D11BF
:100C900000F03F02C3F388105CBF42F20041C0F293
:100CA000F401A1FB00010023FFF79AFB2168022257
:100CB000C1F3014102EB4101B0FBF1F010BD0000B6
:100CC000002804BF012070472DE9F04182B004469E
:100CD000007843F60006C007C4F202060CD0B068E4
:100CE00000F00C00042840F081803068800303D5B8
:100CF0006068002800F06881207880071BD5B06804
:100D000010F00C0F09D0B06800F00C00082840F07B
:100D100087807068400200F183803068800703D5C7
:100D2000E068012840F050813068216920F0F80027
:100D300040EAC10030602078000713D420784007D3
:100D40002AD4A569002D00F03A81B06800F00C00AB
:100D5000082840F0A580012D40F00E81012002B04E
:100D6000BDE8F0816069002800F082800020C4F2B4
:100D700047200121C0F8801EFFF7ECFD054600BFAB
:100D8000706F8007DAD4FFF7E5FD401B0228F7D922
:100D9000032002B0BDE8F081306C5FEAC0080AD4DD
:100DA00000200190306C40F080503064306C00F0D6
:100DB00080500190019847F20007C4F2000738689C
:100DC000C00547D4386840F480703860FFF7C2FD32
:100DD000054600BF3868C0053CD4FFF7BBFD401B8B
:100DE0000228F7D9032002B0BDE8F081B06800F016
:100DF0000C00082803D1706840023FF576AF6168A7
:100E00003068B1F5803F07D0B1F5A02F40F09A804F
:100E100040F480203060306840F4803030609AE0E8
:100E2000E068002840F20000C4F247205CD00121B5
:100E30000160FFF78FFD0546306880073FF574AF0E
:100E4000FFF788FD401B0228F6D9032002B0BDE859
:100E5000F08100BFA168306F012905D0052955D167
:100E600040F004003067306F40F00100306756E01A
:100E70000020C4F247200021C0F8801EFFF76AFD61
:100E8000054600BF706F80077FF558AFFFF762FD22
:100E9000401B0228F6D9032002B0BDE8F08100BF54
:100EA0000027C4F2472700203866FFF753FD022DC4
:100EB00005460DD13068800140F18A80FFF74AFD78
:100EC000401B02284FF00300F4D902B0BDE8F081C6
:100ED0003068800173D5FFF73DFD401B02284FF0BD
:100EE0000300F5D9F1E700BF00210160FFF732FDF3
:100EF000054600BF306880077FF51DAFFFF72AFD6C
:100F0000401B02284FF00300F4D9DEE720F0010077
:100F10003067306F002920F0040030677AD0FFF787
:100F200019FD054641F28837306F800700F1848053
:100F3000FFF710FD401BB842F6D9032002B0BDE810
:100F4000F08100BF20F4803030603068002920F448
:100F5000802030607AD0FFF7FDFC054630688003C2
:100F60003FF5CAAEFFF7F6FC401B6428F6D9032014
:100F700002B0BDE8F08100BF7068E16900F4800252
:100F80008A4221D1216A00F03F028A421CD147F6F1
:100F9000C071626A0140B1EB821F15D1A16A4FF6A0
:100FA000FF73C903994300F44032A1F580318A42AE
:100FB0000AD1E16A00F07060B0EB016F04D100204B
:100FC00002B0BDE8F08100BF012002B0BDE8F081B1
:100FD00004F11C052FCD084340EA8210D9034FF6D7
:100FE000FF729143A1F5803140EA056008437060CB
:100FF00001203866FFF7AEFC044600BF3068800170
:10100000DDD4FFF7A7FC001B02284FF00300F5D941
:101010005BE700BFFFF79EFC054641F2883700BF43
:10102000306F800708D5FFF795FC401BB8424FF0A2
:101030000300F5D949E700BFB8F1000F3FF581AED5
:10104000306C20F0805030647BE600BFFFF782FCFC
:10105000054600BF306880037FF54EAEFFF77AFC8F
:10106000401B64284FF00300F4D92EE7411E0020F6
:10107000B0EB116F1CBF012070474EF21002CEF290
:10108000000251604EF62351CEF20001F0230B70A6
:101090000721906011607047002804BF012070474D
:1010A00010B5044690F8410028B9002084F84000AB
:1010B000204600F021F8242084F841002068C1680F
:1010C00021F40051C160204600F0C0F92068016998
:1010D00021F490410161416921F02A014161C16817
:1010E00041F40051C16000202021606484F8411067
:1010F00084F84210606310BD80B586B041F20001F3
:101100000068C4F20101002288420592CDE9032261
:101110000292019202D006B080BD00BF43F63000BB
:101120000092C4F20200436943F010034361436933
:1011300003F010030093009B0092036843F0010347
:101140000360006800F00100009000984FF4C06058
:1011500001900220CDE902020320049007200590AF
:1011600001F5704001A9FFF725FB06B080BD000026
:101170002DE9F04381B0044690F84100202809D1C0
:1011800000294FF0010018BF002A07D101B0BDE8C7
:10119000F08300BF022001B0BDE8F083002060644E
:1011A00021201D460E4684F841001746FFF7D2FB6A
:1011B000A784E784A1688146B1F5805F02D12069E8
:1011C00000285DD037460020E28C2168002A5DD0DF
:1011D0006A1C24D0002D4AD0804600BF0868000653
:1011E00008D4FFF7B7FBA0EB0900A8427AD8216822
:1011F000C868F3E717B117F8010B04E038F8020BE1
:1012000000276FF35F204860E08C0138E084E08CB9
:101210000028E3D13AE000BF0A68120609D40A6840
:10122000120606D40A6812065CBF0A685FEA026208
:10123000F2D51FB117F8012B05E000BF30F8022BE3
:1012400000276FF35F224A60E28C013AE284E28C6D
:10125000002AE4D11AE000BF30F8022B00276FF318
:101260005F224A60E28C013AE284E28C72B10A6841
:10127000120635D5002FEFD017F8012BF1E700BF8C
:1012800000273046E28C2168002AA1D10868400678
:101290001ED42DB3681C14D1086840062AD40868EF
:1012A000400627D40868400624D4086840064FF05A
:1012B0000000F1D50DE000BF2068C168006840065D
:1012C00018D4FFF747FBA0EB0900A842F4D909E0C6
:1012D0000020202184F8411001B0BDE8F08300BF58
:1012E000FFF738FB0320202184F8411001B0BDE84E
:1012F000F08300BF0020202184F8411001B0BDE838
:10130000F0830000FEE70000FEE7000080B502F079
:10131000D3FA03F0BBF9BDE8804002F0DBBA00006D
:10132000B0B592B006AC20463021FFF765F9002534
:1013300043F640000595CDE90355CDE901550095EB
:10134000C4F20200016841F080510160006800F0C1
:1013500080500090009847F200000095C4F2000011
:10136000016841F440410160006800F44040009091
:101370000098022006900120099010200A90204633
:101380000C95FFF79DFC18B172B600BFFEE700BFD9
:101390000F20CDE9010501A80021CDE903550595F0
:1013A000FFF776FB10B172B6FEE700BF12B0B0BD1A
:1013B00043F60400C4F20200426842F20041C0F267
:1013C000F401C2F3810280B5DFE802F024020824B0
:1013D00047F64001C0F27D111CE000BFD0F800C00C
:1013E0000368026803F03F03C2F3881E5FEA4C22E1
:1013F00047F64002C0F27D1258BF0A46B2FBF3F135
:1014000002680223C2F301420EFB01F103EB420228
:10141000B1FBF2F140F20802C2F200021160406832
:1014200045F28823C0F30310C0F60003185C21FACC
:1014300000F0106080BD00004EF68850CEF2000033
:10144000016841F47001016070470000B0B50446C6
:10145000006804F108030ECB0569194325F44055D3
:101460002A4302616269E3691143C268194349F280
:101470000C639A431143C1604169A26921F4407130
:1014800041F20043114340F48062C4F201039A42E6
:10149000416103D1FFF7C8FB02E000BFFFF7B0FBDB
:1014A000E1694FF69C7563681922C0F6FF75B1F5C6
:1014B000004FA0FB02011FD15A00DB0FFEF790FF87
:1014C00048F21F51C5F2EB11A0FB01235A0905F1A7
:1014D000805302FB0300322303EBC000A0FB010199
:1014E0004FF4F87000EA111000EB0210C1F3421142
:1014F000084421688860B0BD9A009B0FFEF770FF1A
:1015000048F21F51C5F2EB11A0FB01235A0902FB5F
:101510000500322303EB0010A0FB0101F02000EADC
:10152000511000EB0210C1F3431108442168886098
:10153000B0BD0000FEE70000002804BF0020704797
:10154000C1B209B101200CE010F47F4102D0090AB8
:10155000092006E010F47F0107BF010E1920090CD5
:10156000112045F2A022C0F60002515C08447047E9
:10157000B0B540F2B800C2F200000468FEF792FE77
:101580000546204602F04EFD04F1440003F088F9C0
:10159000042084F83400204602F04AFF2846FEF773
:1015A00085FEBDE8B04002F02BBC0000B0B504469B
:1015B000FEF778FE224605466FF00100A16952F859
:1015C000143F2063204659600B60A261126002F054
:1015D000E9FC2846FEF76AFEBDE8B04002F010BC08
:1015E00080B502A002F084F9002080BD1B5B324A66
:1015F0001B5B480010B5022815D14C6845F22C51F0
:10160000C0F600012046FFF71FF8E8B145F245514A
:10161000C0F600012046FFF717F8C8B110A1204618
:10162000FFF712F8C0B10FA002F062F913A002F0A8
:101630005FF915A002F05CF91AA002F059F920A098
:1016400002F056F9002010BD00F0DCFB002010BDB8
:1016500000F014FD002010BD00F098FA002010BD2D
:1016600073656D0055736167653A206C697374200A
:101670005B6F7074696F6E735D0A00005B6F7074EE
:10168000696F6E735D3A0A002020202074687265CD
:101690006164202D206C69737420746872656164C4
:1016A000730A00002020202074696D6572202D20AF
:1016B0006C6973742074696D6572730A00000000B0
:1016C0002020202073656D202D206C697374207399
:1016D000656D6170686F7265730A0000B0B584B0A3
:1016E00040F2A80545F2B07040F21412C2F20005B3
:1016F000C0F6000045F61001C2F20002C0F600017B
:1017000085E8070040F2882215204FF48061C2F27C
:101710000002CDE90021029040F2102041F28172D6
:101720000A24C2F2000012A1C0F6000200230394B2
:1017300002F0E4FEAA6804460FA11046002200232E
:1017400002F09AFCA86890F8211041F0020180F89C
:1017500021101CB1002004B0B0BD00BF40F2102029
:10176000C2F2000002F05CFF002004B0B0BD00BF78
:10177000747368656C6C0000736872780000000018
:1017800040F2A80AC2F2000ADAF8080040F28C140B
:1017900090F8211047F26D3741F0010280F82120C6
:1017A0008807C2F20004C2F268074FF0000001D4BB
:1017B000207006E0207120462760FEF789FE3E215A
:1017C0002152204602F094F845F272564FF001087B
:1017D0004FF0000BC0F6000602E000BF80F820804A
:1017E00001F0D6FD8146DAF80800B9F11B0FF5D0FB
:1017F00090F8201002290BD0012940F07780B9F130
:101800005B0F40F07180022180F82010E8E700BFF4
:10181000A9F14101022980F820B0E1D3B9F1440FC8
:1018200000F28C80DFE819F04600910091009100F1
:1018300091009100910091009A00F80070009100D1
:101840009100700091009100910091009100910031
:101850009100910091009100910091009100910000
:1018600091009100910091009100910091009100F0
:1018700091009100910091009100910091009100E0
:1018800091009100910091009100910091009100D0
:1018900091009100910091009100910091009100C0
:1018A00091009100910091009100910091004800F9
:1018B000960100BF94E700BFB0F87610B0F874202E
:1018C0009142BFF48DAF084490F8221045F2795050
:1018D000C0F6000002F00CF8DAF80800B0F8761054
:1018E0000131A0F876107BE780F820B0B9F10D0F38
:1018F00024D8DFE809F0072A2A2A2A2A2A2A33913B
:10190000092A2A096CE700BF90F82110C90707D0FF
:1019100045F27C60C0F6000001F0EAFFDAF808004A
:10192000B0F87410223001F005F8DAF8080090F8E9
:101930002100800758D484F800B05DE0B9F17F0F32
:101940000CD0B9F1FF0F3FF44BAFB0F87420502A20
:10195000C0F084800022A0F87420B3E0B0F87620B4
:10196000002A3FF43DAFB0F87430A146591E8DB245
:10197000A0F87410511E3C468FB2BD42A0F87610FC
:1019800040F2C28000F1220717FA81F0B9189A1AC2
:1019900092B202F0C5F8DAF80800B0F87410084402
:1019A00080F822B0DAF80800B0F87610084400F1A8
:1019B000220171A001F09CFFDAF808102746B1F867
:1019C0007600B1F874104C4688423FF609AF451EC8
:1019D000304601F08DFFDAF808000135B0F87400E8
:1019E0008542F5D3FCE600BF204684F804B02760AA
:1019F000FEF76EFD3E212152204601F079FFDAF814
:101A0000080000212230512202F006F9DAF808001D
:101A1000C0F874B0E4E600BFB0F8761051B100250C
:101A2000304601F065FFDAF808000135B0F87610AD
:101A30008D42F5D300F1220545F27C60C0F600002E
:101A400001F056FF284600F0D1FEDAF8080090F8C1
:101A50002100800766D484F800B06BE0B0F87630DF
:101A60009A422FD9C11801F123002231D21A02F073
:101A700057F8DAF80800B0F87610084480F8229099
:101A8000DAF8080090F82110C90709D0B0F87610EC
:101A9000084400F122013CA001F02AFFDAF8080016
:101AA000B0F87650B0F874108D421DD2304601F077
:101AB0001FFFDAF808000135B0F874108D42F5D335
:101AC00012E000BF104480F82290DAF8080090F885
:101AD0002110C90708D045F27950C0F600004946E8
:101AE00001F006FFDAF80800B0F87410B0F87620BC
:101AF0000131A0F8741089B201325029A0F8762083
:101B000028BFC0F874B06BE61AA001F0F1FEDAF855
:101B100008002746B0F874104C46084480F822B0FC
:101B20005EE600BF204684F804B02760FEF7D0FCD4
:101B30003E21215212A021462A4601F0D9FEDAF8B0
:101B4000085005F12200FEF7C3FCA5F87400A5F8C3
:101B5000760045E6B0F8760000283FF441AE304606
:101B600001F0C6FEDAF80800B0F876100139A0F8E6
:101B7000761035E6082008000825732020080000AC
:101B80002573257300000000257300002DE9F04F38
:101B90008DB0022002F0DAF800F104087DA084A2E2
:101BA000082101F0A5FE45F22A54C0F600042046A3
:101BB00001F09EFE204601F09BFE204601F098FEBB
:101BC000204601F095FE204601F092FE204601F0ED
:101BD0008FFE204601F08CFE204601F089FE77A0A2
:101BE00001F086FE00250DF1140B7EA77FA4CDF831
:101BF0000C8005E0049DDDF80C80002D00F0C6800F
:101C00002E46002D08BF4646FEF74CFB35B115F8B1
:101C1000041C01F07F01022940F0B6803168414583
:101C200000F0B2800A68059142451DD01168069205
:101C300041451DD00A68079142451DD011680892A0
:101C400041451DD00A68099142451DD011680A928C
:101C500041451DD00A680B9142451DD04FF0080840
:101C600004920C921CE000BF4FF0010816E000BF88
:101C70004FF0020812E000BF4FF003080EE000BF73
:101C80004FF004080AE000BF4FF0050806E000BF6F
:101C90004FF0060802E000BF4FF007080021049152
:101CA000FEF704FB4FF0000907E000BF50A001F071
:101CB0001FFE09F10109C1459CD05BF829A0FEF780
:101CC000F1FA1AF8041C01F07F05FEF7EFFA022D75
:101CD000EFD1AAF10C035AF8080F0025BAF80860F2
:101CE000504511D0504600BF0068504521D00068D3
:101CF00050451BD0006850451AD000680435504547
:101D0000F2D1013D15E000BF504600BF00685045CC
:101D100031D0006850452BD0006850452AD000686B
:101D200004355045F2D1013D25E000BF013500E00A
:101D3000023528A008210822CDE9006501F0D8FD70
:101D4000DAF80050554504D1B0E700BF50450546CC
:101D5000ACD0A5F114023846082101F0C9FD28686D
:101D60005045F3D0204601F0C3FD2868EEE700BFE0
:101D7000013500E002351FA008210822CDE90065E9
:101D800001F0B6FD95E700BFFEF790FA00200DB018
:101D9000BDE8F08F252D2A2E732076202020737524
:101DA0007370656E64207468726561640A00000077
:101DB00073656D6170686F7265000000202D2D2DB8
:101DC000202D2D2D2D2D2D2D2D2D2D2D2D2D2D0A73
:101DD00000000000252D2A2E2A7320253033642090
:101DE00025643A00252E2A73000000002F00000011
:101DF0000A000000252D2A2E2A7320253033642066
:101E000025640A002DE9F04FABB0012001F09EFFE0
:101E1000051D45F2914045F22C52C0F60000C0F677
:101E20000002082101F064FD45F22A54C0F60004C6
:101E3000204601F05DFD204601F05AFD204601F0EC
:101E400057FD204601F054FD204601F051FD20468B
:101E500001F04EFD204601F04BFD204601F048FD0B
:101E600064A001F045FD00260DF18C0B039504E004
:101E7000049E039D002E00F0B9803446002E08BF5A
:101E80002C46FEF70FFA36B116F8041C01F07F015C
:101E9000012940F0A9802168A94200F0A5800A68C4
:101EA0002391AA421CD011682492A9421CD00A682E
:101EB0002591AA421CD011682692A9421CD00A681A
:101EC0002791AA421CD011682892A9421CD00A6806
:101ED0002991AA421CD04FF0080804922A921BE0D4
:101EE0004FF0010816E000BF4FF0020812E000BFFB
:101EF0004FF003080EE000BF4FF004080AE000BFF7
:101F00004FF0050806E000BF4FF0060802E000BFF2
:101F10004FF0070800210491FEF7C8F94FF00009BF
:101F200006E000BFFEF7C2F909F10109C1459FD0E3
:101F30005BF82950FEF7B6F915F8041C01F07F0193
:101F40000129EFD1A5F10C07044605A839467822EE
:101F500001F0EEFC2046FEF7A9F995F8296035A0BE
:101F6000082108223B46009601F0C2FC95F82800A3
:101F700000F00700042804D831A151F8200001F036
:101F8000B7FCE9690A4600BF107823280FD15078C2
:101F9000232809D19078232808D1D0780432232827
:101FA000F2D0013A03E000BF013200E00232D5E98D
:101FB00008402B696618891A21446422D5F834A098
:101FC0005143B1FBF4F7F51A02F0DCF8064621A004
:101FD000294622463B46CDE900A601F089FC09F1DD
:101FE0000109C145A4D143E7FEF760F900202BB0F9
:101FF000BDE8F08F202D2D2D20202D2D2D2D2D2DC8
:102000002D202D2D2D2D2D2D2D2D2D2D202D2D2D1A
:102010002D2D2D2D2D2D2D20202D2D2D2D2D2D2017
:10202000202D2D2D2D2D2D2D2D2D2D202D2D2D0A1D
:1020300000000000252D2A2E2A732025336420005D
:10204000EC540008FE540008335500083C550008C5
:10205000F554000820307825303878203078253045
:10206000387820202020253032642525202020307B
:1020700078253038782025730A0000002DE9F04FCC
:102080008FB00A2001F062FE45F2455200F1040BC8
:102090000FF2C450C0F60002082101F029FC45F2FD
:1020A0002A54C0F60004204601F022FC204601F02C
:1020B0001FFC204601F01CFC204601F019FC2046C4
:1020C00001F016FC204601F013FC204601F010FC44
:1020D000204601F00DFC0FF2B45001F009FC4FF066
:1020E000000833E03546A7F10C09FEF7DFF8D7E921
:1020F000066445F21450C0F60000082108224B4641
:10210000CDE9006401F0F4FB17F8030C45F2075128
:10211000C00745F2DF40C0F60000C0F6000108BF6E
:10212000084601F0E5FB17F8030C800759BF45F29C
:10213000D540C0F6000045F28740C0F6000001F02F
:10214000D7FB2E46B8F1000F00F07C824446B8F170
:10215000000F08BF5C46FEF7A5F8B8F1000F06D0E7
:1021600018F8041C01F07F010A2940F06982D4F8B4
:102170000090D94500F06482D9F800A0DA4523D058
:10218000DAF80010594525D00A685A4500F0328126
:1021900013685B4500F038811F685F4500F084815B
:1021A0003E685E4500F0D281D6F80080D84500F048
:1021B000DD810025CDE9046756460E95CDE906324E
:1021C0000891CDF80C800AE000214FF000080E9134
:1021D00006E000BF01214FF000080E915646002195
:1021E0000D910C910B910A910991FEF75FF8FEF7A2
:1021F00059F819F8041C01F07F010A2932D135463B
:10220000A9F10C07FEF752F8D9E9066445F214501B
:10221000C0F60000082108223B46CDE9006401F029
:1022200067FB19F8030C45F20751C00745F2DF4080
:10223000C0F60000C0F6000108BF084601F058FBD8
:1022400019F8030C800759BF45F2D540C0F60000CD
:1022500045F28740C0F6000001F04AFB2E46DA4501
:1022600005D16FE7FEF722F8DA453FF46BAFFEF7D2
:1022700019F816F8041C01F07F010A2932D1A6F1E1
:102280000C07FEF713F8D6E9065445F21450C0F6D1
:102290000000082108223B46CDE9005401F028FB4C
:1022A00016F8030C45F20751C00745F2DF40C0F6AF
:1022B0000000C0F6000108BF084601F019FB16F83F
:1022C000030C800759BF45F2D540C0F6000045F227
:1022D0008740C0F6000001F00BFB0E9800287FF449
:1022E00031AF05E0FDF7E2FF0E9800287FF42AAF3A
:1022F000FDF7D8FF089D15F8041C01F07F010A299D
:1023000034D1B146A5F10C07FDF7D0FFD5E906643D
:1023100045F21450C0F60000082108223B46CDE9E2
:10232000006401F0E5FA15F8030C45F20751C00707
:1023300045F2DF40C0F60000C0F6000108BF0846C5
:1023400001F0D6FA15F8030C800759BF45F2D540C5
:10235000C0F6000045F28740C0F6000001F0C8FA60
:102360004E460D9800287FF4EDAE05E0FDF79EFF88
:102370000D9800287FF4E6AEFDF794FF079F17F84D
:10238000041C01F07F010A294AD13546A7F10C0946
:10239000FDF78CFFD7E9066445F21450C0F6000043
:1023A000082108224B46CDE9006401F0A1FA17F894
:1023B000030C45F20751C00745F2DF40C0F60000AC
:1023C000C0F6000108BF084601F092FA17F8030CA6
:1023D000800759BF45F2D540C0F6000045F287405E
:1023E000C0F6000001F084FA2E460C9800287FF415
:1023F000A9AE1BE00122089100210D924FF00008C8
:1024000056460E91EDE600BF0123CDE907210021DC
:102410000C934FF000085646CDE90D11E2E600BFDF
:10242000FDF744FF0C9800287FF48CAEFDF73AFFCF
:10243000069F17F8041C01F07F010A2942D1354696
:10244000A7F10C09FDF732FFD7E9066445F21450F5
:10245000C0F60000082108224B46CDE9006401F0D7
:1024600047FA17F8030C45F20751C00745F2DF4061
:10247000C0F60000C0F6000108BF084601F038FAB7
:1024800017F8030C800759BF45F2D540C0F600008D
:1024900045F28740C0F6000001F02AFA2E460B985C
:1024A00000287FF44FAE13E00127089100210B971D
:1024B0004FF00008CDE9063256460E91CDE90C11D9
:1024C00091E600BFFDF7F2FE0B9800287FF43AAECC
:1024D000FDF7E8FE059F17F8041C01F07F010A29AB
:1024E00056D13546A7F10C09FDF7E0FED7E90664A1
:1024F00045F21450C0F60000082108224B46CDE9F1
:10250000006401F0F5F917F8030C45F20751C00714
:1025100045F2DF40C0F60000C0F6000108BF0846E3
:1025200001F0E6F917F8030C800759BF45F2D540D2
:10253000C0F6000045F28740C0F6000001F0D8F96F
:102540002E460A9800287FF4FDAD27E00126CDE94C
:10255000072100210A964FF00008CDE90573564681
:10256000CDE90D11CDE90B113EE600BF0125089123
:10257000002109954FF00008CDE90467CDE9063246
:1025800056460E91CDE90C11CDE90A112DE600BF9A
:10259000FDF78CFE0A9800287FF4D4ADFDF782FE8B
:1025A000049F17F8041C01F07F010A2934D1354635
:1025B000A7F10C09FDF77AFED7E9066445F214503D
:1025C000C0F60000082108224B46CDE9006401F066
:1025D0008FF917F8030C45F20751C00745F2DF40A9
:1025E000C0F60000C0F6000108BF084601F080F9FF
:1025F00017F8030C800759BF45F2D540C0F600001C
:1026000045F28740C0F6000001F072F92E460998A5
:1026100000287FF497AD05E0FDF748FE09980028F3
:102620007FF490ADFDF73EFE039F17F8041C01F008
:102630007F010A293FF456ADFDF738FE82E500BF61
:10264000FDF734FE02F01CF801461CA001F050F921
:1026500000200FB0BDE8F08F252D2A2E73202070AA
:102660006572696F64696320202074696D656F7598
:102670007420202020616374697661746564202071
:102680002020206D6F64650A00000000202D2D2D94
:102690002D2D2D2D2D2D2D202D2D2D2D2D2D2D2D77
:1026A0002D2D202D2D2D2D2D2D2D2D2D2D2D202D74
:1026B0002D2D2D2D2D2D2D2D0A00000063757272EC
:1026C000656E74207469636B3A3078253038780A07
:1026D0000000000092B043F6300647F2000534A037
:1026E000C4F20206C4F2000501F002F9FEF738F95F
:1026F00006AC20463021FDF77FFF00270597CDE986
:102700000377CDE901770097306940F08050306160
:10271000306900F08050009000980097286840F4DD
:1027200040402860286800F4404000900098022053
:1027300006900120099010200A9020460C97FEF781
:10274000BFFA18B172B600BFFEE700BF0F20CDE997
:10275000010701A80021CDE903770597FEF798F955
:1027600010B172B6FEE700BF00210691306805F592
:10277000204240F00100306030684FF4E13300F057
:1027800001000690069840F28860C2F200000C2713
:10279000C0E90023C0E90211C0E90417C0E906112D
:1027A000FEF77AFC10B172B6FEE700BFFEE700BF8D
:1027B0000A48656C6C6F0A00B0B545F2AC7445F21E
:1027C000A470C0F60004C0F60000A04209D245F291
:1027D000A475C0F6000500BF55F8040B8047A5425C
:1027E000FAD3BDE8B040FFF775BF00002DE9F04F08
:1027F00081B083460078002860D040F2A80040F203
:10280000AC0AC2F20000C2F2000A0568DAF8004021
:10281000A54280F089804FF000090FF214180026BD
:102820000FE000BF481C00BF801B4845B8BF814671
:102830004046394601F05CF8DAF800400C35A54214
:1028400068D22F685846FDF743FE0246584639467F
:10285000FDF75DFE0028F1D1B9F1000F04D0317809
:10286000304651B9E0E700BF3846FDF731FE8146FA
:102870003E46317830460029D6D000203A5C91425D
:1028800015D131184B78002BCCD03A185478A3428C
:10289000C8D18B7873B19478A3420BD1CB785BB15C
:1028A000D278934208D1097904300029E6D1304426
:1028B000BAE700BF881CB7E7C81CB5E745F24B5024
:1028C000C0F6000001F014F840F2A80040F2AC0598
:1028D000C2F20000C2F2000500682968884210D2E6
:1028E00045F26654A0F10C06C0F6000456F80C1F21
:1028F0002046726800F0FCFF286806F10C01814256
:10290000F4D345F27C60C0F6000001B0BDE8F04FA2
:1029100000F0EEBF46B1584631464A4601B0BDE828
:10292000F04F01F06DBC00BF01B0BDE8F08F00BFFB
:1029300025730A00002904BF002070472DE9F04FDD
:102940008DB0CF1E8E1E4D1E002302E0043399422F
:1029500020D0C25C202A01D0092A1FD19D4219D063
:10296000C4186278202A01D0092A1DD19E4211D0B4
:10297000A278202A01D0092A1CD19F420AD0E278ED
:10298000202AE3D0092AE1D0C81AA0F1030804F1F3
:10299000030A14E000200DB0BDE8F08FA1EB03089E
:1029A00000EB030A0BE000BFD84300EB010804F181
:1029B000010A04E0C81AA0F1020804F1020AA8F111
:1029C0000300C8F1000700250497D1B2092932D0CD
:1029D000202930D07A191DD00AEB05014B78092B3C
:1029E0001CD0202B1AD0531C14D08B78092B19D053
:1029F000202B17D002321DD0CA78092A16D0202ADF
:102A000014D0A84206D00A790435D1B20929DFD101
:102A100011E000BF45468DB92CE100BF01356DB90D
:102A200028E100BF02354DB924E100BF03352DB9BF
:102A300020E100BF4546002D00F01C8140F2A800B7
:102A4000C2F20000076840F2AC00C2F20000046865
:102A500001E000BF0C37A74280F00C813E68514670
:102A600030462A46FDF753FD0028F3D1705D00285B
:102A7000F0D1B8680028019000F0FC8005A8002182
:102A8000202201F0C9F8C8F10100029000204FF0A7
:102A9000000ED34603904246C64588BF7246AEEB51
:102AA000020C0CF1010400255B4676461BF805007C
:102AB000202801D0092835D11CEB05090BEB0501B5
:102AC00028D04878002720280BF8057001D0092865
:102AD0002AD1671920D08878002720284F7001D08C
:102AE000092825D119F1020718D0C8780027202815
:102AF0008F7001D009281FD119F1030710D00020D1
:102B0000C8700433043604351BF805002028D1D1E1
:102B1000D2E700BF0B4613E04B1C11E08B1C0FE00B
:102B200003330DE032460BE00133721C08E000BFB6
:102B30000233B21C04E000BFCB1C0EEB0501CA1C23
:102B4000039C0499082C77D2424580F08B80222880
:102B500004F1010020D103F1010B05A941F824B0D3
:102B60005D78511C04E000BF1BF8015F0A4601318B
:102B700041454FF0000638BF0126222D3CD041458B
:102B80003AD25C2DF0D15B4613F8017F222F04BFAF
:102B90009B46911CE8E700BF05AF47F824308C182E
:102BA0000299002601EB020C995D09291ED020290B
:102BB0001CD0A11958D09D196F78092F24D0202F2F
:102BC00022D01CEB06074FD0AF78092F22D0202F40
:102BD00020D08F1C48D0EF78092F21D0202F1FD074
:102BE000033141D00436995D0929E0D103EB060B8E
:102BF00002EB060E19E000BFB6B300210BF8011B73
:102C000002F1020E13E000BF911905F1010B01F171
:102C1000010E0AE0911905F1020B01F1020E04E028
:102C2000911905F1030B01F1030EC6451CD2C645EF
:102C30000390FFF430AF17E023A000F059FE002509
:102C400029A705AE56F82510384600F051FE01358B
:102C5000AC42F7D145F27C60C0F6000000F048FEBF
:102C6000204601E020462CB1019A05A990470DB0FD
:102C7000BDE8F08F00211AF8010040F02000202864
:102C80000AEB010015D0427842F02002202A0BD036
:102C9000827842F02002202A08D0C27842F0200236
:102CA000202A05D00431E6E7013002E0023000E0DE
:102CB0000330002101700DA0514600F019FE4FF0C5
:102CC000FF300DB0BDE8F08F546F6F206D616E79ED
:102CD00020617267732021205765206F6E6C792008
:102CE0005573653A0A0000002573200025733A20C9
:102CF000636F6D6D616E64206E6F7420666F756EAC
:102D0000642E0A0070B545F24B50C0F6000000F08A
:102D1000EFFD40F2A80040F2AC05C2F20000C2F2A2
:102D2000000500682968884211D245F26654A0F176
:102D30000C06C0F6000400BF56F80C1F204672684F
:102D400000F0D6FD286806F10C018142F4D345F26B
:102D50007C60C0F6000000F0CBFD002070BD0000DC
:102D60002DE9F04F87B0DDE911890FF248565FEA8F
:102D700049670FF2545758BF37465FEAC96648BFE4
:102D800029F001095FEAC9764FF0300E08BF4FF015
:102D9000200E5FEA897667D4002601960126029606
:102DA00000260096002A00F09E804FF0000B0A2BB0
:102DB00071D149F69A160DF10C08C1F6991600BFAB
:102DC0004CF6CD43CCF6CC43A2FB0334E30803EB33
:102DD0008304A2EB44043C5D0A2A08F80B40C0F0CF
:102DE0008980A3FB064505EB8505A3EB4503FB5C4A
:102DF00008EB0B0C642A8CF80130C0F0858048F297
:102E00001F53C5F2EB13A2FB03346309A3FB064572
:102E100005EB8504A3EB4403FB5CB2F57A7F8CF8E9
:102E2000023077D344F6D353C1F26203A2FB0334DA
:102E3000A309A3FB064541F25974CDF2B714A2FBD6
:102E4000044A05EB8504A3EB440342F21074FB5CD7
:102E5000A2424FEA5A320BF1040B8CF80330AFD286
:102E6000DDF844805AE000BFB2F1FF3F08DD5FEAC1
:102E700049762FD45FEA09768ED520262BE000BF55
:102E800001260196002602962D26524200964FF00A
:102E9000000B0A2B8DD003AE02F00F03FD5C13096B
:102EA00006F80B5028D003F00F03FC5C06EB0B0573
:102EB000130A6C7024D003F00F03FC5C130BAC708E
:102EC0002AD003F00F03FB5C120C0BF1040BEB7028
:102ED000E2D123E02B2600960026029601260196D9
:102EE000002A7FF462AF30228DF80C204FF0010BE6
:102EF00014E000BFDDF844800BF1010B0EE000BFD1
:102F00000BF1020B0AE000BFDDF844800BF1020B6D
:102F100004E000BFDDF844800BF1030B109AC345B9
:102F2000C246C8BFDA4619F0110FA2EB0A0C67D0EF
:102F30000546029830B98D423CBF00982870ACF12C
:102F4000010C01355FEAC96034D4BCF10107C0F25D
:102F500093801CF0030600F099808D4238BF85F8FD
:102F600000E0012E05F1010040F09A80ACF102076B
:102F70000546BCF1040FC0F08D80381D8D4205F16F
:102F8000010238BF85F800E08A4238BF82F800E0CD
:102F9000AA1C8A4238BF82F800E0EA1C8A42A0F1EB
:102FA000040038BF82F800E0032805F10405E5DCE1
:102FB0004FF0FF3C2846D84562DDAAEB0B026FEAD2
:102FC0000B0312F003040AEB03025BD08842AAF160
:102FD00001073CBF30230370012C00F1010E0AD021
:102FE0008E45AAF102073CBF30238EF80030022C38
:102FF00000F1020E6ED17046032A76D291E000BF36
:103000000022BCF1000FC8BF0122019B1A40ACEBAB
:103010000207B7F1010CFFF68BAF17F003064FD094
:1030200088423CBF20220270012E00F1010540F0D1
:103030001781A7F1020C2846042F43D30CF1040298
:10304000202700BF884200F1010338BF07708B4280
:1030500038BF1F70831C8B4238BF1F70C31C8B424C
:10306000A2F1040238BF1F70032A00F10400E9DC5A
:103070004FF0FF3C5CE700BF2846BC46D8459CDCCF
:1030800086464EE05746032A2FD24AE0BCF1040F91
:10309000BFF473AF4FF0FF3CD8453FF78EAFEFE77B
:1030A000884238BF80F800E0022E05F1020040F0AF
:1030B000E780ACF103070546BCF1040FEAD35CE7F7
:1030C000042FBBD24FF0FF3C029800283FF433AFEF
:1030D00038E700BF03308E45AAF103073CBF302319
:1030E0008EF800308646032A1BD33022864600BF66
:1030F0008E450EF1010038BF8EF80020884238BF9F
:1031000002700EF10200884238BF02700EF1030017
:103110008842A7F1040738BF0270BB450EF1040EC8
:10312000E6DBB8F1000F44D003AACBF10000023A6D
:10313000002704E00437C319ABF1040B60D00EEB99
:1031400007048C4203D202EB0B035B782370BBF1C4
:10315000020F04F101031DDB8B423CBF12F80B5040
:103160001D70C319023304F102061BD08E4204D233
:1031700002EB0B0313F8013C3370BBF1040F04F1B5
:10318000030515D38D42D5D202EB0B0313F8023C95
:103190002B70CFE79E46BCF1010F0DDA704607B0E9
:1031A000BDE8F08FB646BCF1010F05DAF6E700BFC7
:1031B000AE46BCF1010FF1DB1CF003071AD08E45BF
:1031C0003CBF20208EF80000ACF10102012F0EF16F
:1031D000010009D08842ACF102023CBF20230370F9
:1031E000022F0EF1020011D18646BCF1040F19D254
:1031F00033E000BF6246BCF1040F2ED312E000BFE3
:10320000BE44BCF1010FD7DAC8E700BF0EF1030ED0
:103210008842ACF103023CBF202303707046BCF12E
:10322000040F1AD3013A2027704600BF884200F1EC
:10323000010338BF07708B4238BF1F70831C8B425D
:1032400038BF1F70C31C8B42A2F1040238BF1F702D
:1032500012F1020F00F10400E8D307B0BDE8F08FCF
:103260008D423CBF20222A70022E00F1020515D1AA
:10327000A7F1030C2846042FFFF424AFDEE600BFBD
:103280000335884238BF80F800E0ACF104072846D7
:10329000BCF1040FBFF471AEFCE600BF03308D42F9
:1032A0003CBF20222A70A7F1040C0546042FBFF46E
:1032B000C5AE07E7303132333435363738396162DD
:1032C00063646566000000003031323334353637D0
:1032D00038394142434445460000000000F09EB8A2
:1032E000B0B545F2A47445F29C70C0F60004C0F677
:1032F0000000A04228BFB0BD051F00BF55F8040F55
:103300008047281DA042F9D3B0BD000080B5FCF76E
:10331000C9FF40F2B401C2F200014A8801324A807A
:10332000BDE88040FCF7C2BF10B5FCF7BBFF40F220
:10333000B404C2F20004618801390AB2002A618033
:1033400004DDBDE81040FCF7B1BF00BF0021618083
:10335000FCF7ACFF6068002808BF10BDBDE8104056
:1033600000F04EBD80B5FDF7FBFAFDF7D9FFFEF783
:103370001FF8FDF73FFC44F6D351C1F26201A0FBF8
:1033800001018809FDF772FEBDE88040FFF7A8BF84
:1033900040F2CC00C2F2000000680168890609D43E
:1033A00080B50A2001F0F0F8FF20BDE88040C0B2EF
:1033B000704700BF4068C0B270470000F0B581B0F0
:1033C00004460D208DF8030040F2CC00C2F200004C
:1033D000002180F84010204600F0FAFEE0B140F2F3
:1033E000CC060546C2F200060DF103070AE000BF55
:1033F0003046214601220123FDF7BAFE013D04F1CA
:10340000010409D020780A28F2D130463946012239
:103410000123FDF7ADFEEBE701B0F0BD4EF60C5019
:103420000421CEF20000C0F2FA51016070470000A2
:1034300010B540F6C031C2F200010968044629B156
:1034400004F128008847002808BF10BD616C45F2D0
:103450007160C0F6000000F04BFAA16A45F23060DE
:10346000C0F6000000F044FAE16A45F23D60C0F6A3
:10347000000000F03DFA216B45F24A60C0F6000002
:1034800000F036FA616B45F25760C0F6000000F0BC
:103490002FFAA16845F26460C0F6000000F028FA37
:1034A000E168CAA000F024FA2169CCA000F020FA5B
:1034B0006169CEA000F01CFAA169D0A000F018FA52
:1034C000E169D2A000F014FA216AD4A000F010FA49
:1034D000616AD6A000F00CFAA16BD8A000F008FA3F
:1034E000E16BDAA000F004FA216CDCA000F000FA35
:1034F000207840070AD445F27C50C0F6000000F066
:10350000F7F92078C0060DD512E000BF01F044F8AD
:10351000014645F29650C0F6000000F0E9F9207827
:10352000C00605D445F2B350C0F6000000F0E0F943
:103530004EF62954CEF20004D4F80300800705D5D6
:1035400045F20E60C0F6000000F0D2F9D4F8030096
:10355000400040F1F980207830B345F2E250C0F6E7
:10356000000000F0C5F9217845F2F560C0F60000D2
:1035700000F0BEF92078C00746D1207880074CD4EF
:103580002078400752D42078000758D42078C0060D
:103590005ED494F90000B0F1FF3F61DD45F27C603C
:1035A000C0F6000000F0A4F914F8010C002800F0A7
:1035B000968045F2C150C0F6000000F099F914F869
:1035C000011C45F20B70C0F6000000F091F914F8F0
:1035D000010CC00752D114F8010C800758D414F81C
:1035E000010C00075ED414F8010CC00664D414F971
:1035F000010CB0F1FF3F6ADD45F27C60C0F60000CF
:1036000000F076F96BE000BF45F2E060C0F6000024
:1036100000F06EF920788007B2D545F2D560C0F68B
:10362000000000F065F920784007ACD545F2D36082
:10363000C0F6000000F05CF920780007A6D545F23E
:10364000C960C0F6000000F053F92078C006A0D58C
:1036500086A000F04DF994F90000B0F1FF3F9DDC29
:10366000D4F80F1045F2EE50C0F6000000F040F91B
:1036700014F8010C00289CD131E000BF45F2A46091
:10368000C0F6000000F034F914F8010C8007A6D54C
:1036900045F29A60C0F6000000F02AF914F8010C17
:1036A0000007A0D545F2C860C0F6000000F020F980
:1036B00014F8010CC0069AD545F2BF60C0F60000B0
:1036C00000F016F914F9010CB0F1FF3F94DCD4F8C6
:1036D0000B1045F2FE50C0F6000000F009F9B4F8F6
:1036E000010088B345F2D450C0F6000000F000F9A4
:1036F000B4F8011045F22170C0F6000000F0F8F8AF
:10370000B4F80100C0072DD1B4F80100800733D40C
:10371000B4F80100400739D4B4F8010000073FD4E1
:10372000B4F80100C00545D4B4F80100800505D502
:1037300045F2AE60C0F6000000F0DAF845F27C60B9
:10374000C0F6000000F0D4F8D4F80300B0F1FF3F59
:1037500006DC45F22360C0F6000000F0C9F800BFA7
:10376000FEE700BF45F2E960C0F6000000F0C0F8D7
:10377000B4F801008007CBD545F29060C0F6000098
:1037800000F0B6F8B4F801004007C5D545F27E60F8
:10379000C0F6000000F0ACF8B4F801000007BFD597
:1037A00045F2B960C0F6000000F0A2F8B4F80100DC
:1037B000C005B9D545F28560C0F6000000F098F864
:1037C000B4F801008005B3D4B8E700BF7230353AD1
:1037D000203078253038780A000000007230363A00
:1037E000203078253038780A000000007230373AEF
:1037F000203078253038780A000000007230383ADE
:10380000203078253038780A000000007230393ACC
:10381000203078253038780A000000007231303AC4
:10382000203078253038780A000000007231313AB3
:10383000203078253038780A000000007231323AA2
:10384000203078253038780A00000000206C723A69
:10385000203078253038780A000000002070633A64
:10386000203078253038780A0000000053544B454A
:103870005252200080B5043222F007024FF0000CB3
:103880004BF6EF6E42F844CDCDF6AD6EC2E901EED7
:10389000C2E903EEC2E905EEC2E907EE4FF0807E11
:1038A000D0631046C2E9091CC2E90BCCC2E90DC3C2
:1038B000C2F840E080BD000080B5FCF7F3FC40F6A4
:1038C000C831C2F200010A7801320A70BDE88040B6
:1038D000FCF7ECBC80B5FCF7E5FC40F6C831C2F261
:1038E00000010A78013A0A70BDE88040FCF7DEBCAE
:1038F00083B070B581B040F6D034844605A8C2F2DA
:1039000000040EC005AB20467F21624600937F264F
:1039100001F076F805467F28204628BF3546FFF798
:103920004DFD284601B0BDE8704003B0704700006F
:1039300070B5102A10D28646002A55D012F0030323
:1039400012D00C4614F8016B7546012B05F8016B7B
:103950000ED1531EAE4634E041EA00039B0711D05E
:10396000864612F00303ECD113460C4629E000BF53
:103970004E78022B8EF801601CD1931E8C1C0EF128
:10398000020E1EE0A2F1100E012303EB1E1313F032
:1039900003032BD00D68012B05604D6845608D68D1
:1039A0008560CD68C56027D1103100F110037246E3
:1039B0008C463FE08E78D31ECC1C8EF802600EF150
:1039C000030E042A38BF70BD211FAEF1040200BFF0
:1039D00011F8046F043B02F8046F4E7856708E782D
:1039E0009670CE78D670F3D170BD00BF0346BEF19D
:1039F000300F23D24BE000BF0D69022B05614D69EA
:103A000045618D698561CD69C56105D1203100F1C0
:103A10002003203A8C460DE00B6A01F1300C036262
:103A20004B6A303A43628B6A8362C96A00F13003A1
:103A3000C16261461C46BEF1300F28D30E6801F109
:103A4000400C1E604E6803F140045E608E68403A90
:103A50009E60CE680F2ADE600E691E614E695E614F
:103A60008E699E61CE69DE610E6A1E624E6A5E627A
:103A70008E6A9E62CE6ADE620E6B1E634E6B5E6362
:103A80008E6B9E63C96BD96361462346D6D8042AE0
:103A900010D3131F012101EB930111F003050DD089
:103AA000614651F8046BA646012D4EF8046B07D110
:103AB0001A4619E0A64661463EE700BF16E000BF81
:103AC000DCF80410022D616006D10CF1080C0834FA
:103AD000083A6146A64609E0DCF808600CF10C01E2
:103AE00004F10C0E0C3AA6608C4674460C2BFFF4C5
:103AF00023AF00BFDCF8001004F1100E2160DCF8E9
:103B00000410103A6160DCF80810032AA160DCF8A8
:103B10000C300CF11001E3608C467446EAD80BE7D8
:103B2000B0B5814214D28B18984211D2002A45D0E8
:103B300012F0030100EB020C42D09E461EF8015D1C
:103B40006446012904F8015D3ED1511EA4464DE0B2
:103B5000A2B312F0030309D08C461CF8014B864631
:103B6000012B0EF8014B05D1531E14E08C468646FE
:103B7000134610E04D78022B457005D1931E01F1DC
:103B8000020C00F1020E06E001F1030C8978D31E4D
:103B900000F1030E8170042A38BFB0BDACF10401FE
:103BA000AEF1040211F8045F043B02F8045F4D78A3
:103BB00055708D789570CD78D570F3D1B0BD00BFBC
:103BC0009E46114612E000BF9E461EF8025D644606
:103BD000022904F8025D03D1911EA44606E000BF4D
:103BE00013F8035DD11E0CF8035D9E46042AE5D34D
:103BF000ACF10402AEF102035D780439D5701D7892
:103C0000957013F8015C557013F8025CA3F104037E
:103C100002F80459F0D1D1E710B5042A1ED310F0F0
:103C200003031BD1CBB24FF00134102A03FB04FC79
:103C300016D3A2F11004012303EB141313F00303B2
:103C400010D0012BC0E900CCC0F808C0C0F80CC0EF
:103C50000CD100F1100322461BE000BF864656E05F
:103C6000864631E00346302C16D22BE0022BC0E909
:103C700004CCC0F818C0C0F81CC003D100F1200368
:103C8000203A06E000F13003303AC0E908CCC0E940
:103C90000ACC9E46302C15D303F1400E403AC3E9BE
:103CA00000CCC3E902CCC3E904CCC3E906CCC3E928
:103CB00008CCC3E90ACCC3E90CCCC3E90ECC0F2A6B
:103CC0007346E9D8042A22D3734600BF141F042C7C
:103CD0004EF804CB1AD3A2F10804042CC3F804C094
:103CE0000ED3A2F10C04042CC3F808C00CD303F1CA
:103CF000100E103AC3F80CC0032A7346E6D806E04B
:103D000003F1080E02E000BF03F10C0E2246002A68
:103D100008BF10BD5FFA81FC04467046114662463A
:103D2000FCF740FC204610BD10B504460020207270
:103D3000FCF7B8FA54F80C1F62684A601160C4E9D5
:103D40000044BDE81040FCF7B1BA000040F20C029C
:103D5000C2F200021178814211460AD0114611F8D0
:103D6000103F834205D012F8201F814218BF002265
:103D70001146084670470000F0B581B00E4640F28B
:103D80000C01C2F2000115460A780446B2420F4601
:103D90000AD00F4617F8100FB04205D011F8200FC7
:103DA000B04218BF00210F46FFF7B0FA043738467B
:103DB0000068B84208D00068B84205D00068B84230
:103DC00002D00068B842F3D1FFF7AEFA46F08000A7
:103DD000207220462946082200F012FAFCF762FA07
:103DE000396844F80C1F4C603C60676001B0BDE866
:103DF000F040FCF75BBA0000007AC0097047000091
:103E00002DE9F04381B0FCF74DFA40F2B405C2F25F
:103E10000005698821B101B0BDE8F043FCF746BA5E
:103E2000A9680029F7D080460846FDF785FB6E6833
:103E300040F650490138C2F2000996F8342059F88A
:103E4000307002F007010329A7F1140108D196F898
:103E5000353098420AD902F0F70086F8340010E0B5
:103E6000B1420ED02870696062E000BF434002F0AA
:103E70000804234302F0F70286F8342018BFB14249
:103E800026D1FCF70FFA314651F8142F4B685360D6
:103E90001A6091F82120096059F8323009EBC2020A
:103EA0009342496004D1B16BAA6822EA0101A9607A
:103EB000FCF7FCF9686890F8341001F0F801033160
:103EC00080F83410404601B0BDE8F043FCF7EEB98D
:103ED00028706960FCF7E6F9696896F834208E422C
:103EE00002F0F80112D096F8353041F001011207C6
:103EF00086F8341009EBC30106F114020CD40B68E8
:103F00005A6073610A6006F1180209E041F003018A
:103F100086F834100AE000BF4B681A60B3614A604B
:103F2000B36BAC68116044EA0301A960FCF7BEF909
:103F3000FCF7B8F9D7E900124A60116097F8211030
:103F40003F6059F8312009EBC1018A427F6004D1FA
:103F5000796AAA6822EA0101A960FCF7A7F997F833
:103F6000200000F0F800033087F8200040F6C83049
:103F7000C2F20000017806F11C00002907F10801D7
:103F800008D0FCF796F9404601B0BDE8F043FCF7D5
:103F90008DB900BFFCF78DF9404601B0BDE8F04394
:103FA000FCF784B910B50446FCF77CF940F2B40C78
:103FB000C2F2000CDCF8042094F83430944203F090
:103FC000F80217D042F0010284F8342094F835202A
:103FD00040F65041C2F2000101EBC202190704F1A0
:103FE00014030FD411684B606161136004F118036E
:103FF0000CE000BF42F0030184F83410BDE810402B
:10400000FCF754B951680B60A1615360A16BDCF8F7
:1040100008401A602143CCF80810BDE81040FCF7B6
:1040200045B90000B0B50546FCF73CF9294651F802
:10403000142F4B6853601A6091F8212040F65043CA
:104040000960C2F2000353F8324003EBC20294420B
:10405000496003D0BDE8B040FCF728B940F2B40293
:10406000C2F20002A96B936823EA01019160BDE8E6
:10407000B040FCF71BB9000070B515460A46022196
:104080001C460646FFF778FE06F11400C6E9050057
:104090000020B583747270BD80B582B045F23C706B
:1040A000C0F60000FFF724FC0AA0FFF721FC0FF286
:1040B000480C0FF2500E16A0042101220123CDE975
:1040C00000ECFFF715FC1BA002B0BDE88040FFF735
:1040D0000FBC00BF2D205254202D20202020205422
:1040E0006872656164204F7065726174696E6720E3
:1040F00053797374656D0A0031343A33323A313290
:104100000000000041707220203120323032350032
:10411000202F207C205C202020202025642E256458
:104120002E2564206275696C642025732025730A2E
:10413000000000002032303036202D203230323264
:1041400020436F70797269676874206279205254D5
:104150002D546872656164207465616D0A00000009
:1041600082B080B582B08C46CDE9042304AB4FF019
:10417000FF316246019300F043FC02B0BDE880408D
:1041800002B07047002848BF40420B2899BF04A1E5
:1041900051F8200045F27F70C0F60000704700BF64
:1041A0004557000862570008775700084F57000826
:1041B0008D570008575700086857000887570008B0
:1041C0005E5700086F570008485700087F570008DF
:1041D000014600BF0A7862B14A784AB18A785AB17A
:1041E000CA780431002AF5D10139081A704700BF96
:1041F0000131081A704700BF0231081A70470000E9
:10420000002A08BF7047F0B581B0C2F1000C00234E
:104210008646CC5CC454FCB10CEB03056C1C16D276
:10422000CE187778C4186770E7B1AF1C0FD0B77895
:10423000A770EFB103350AD0F578E570F5B1043316
:104240000EF1040E1CEB0304A2F10402E1D101B053
:10425000BDE8F040704700BF0EF10103511E11D1BF
:10426000F5E700BF0EF10203013A511E0AD1EEE755
:104270000EF10303023A511E04D1E8E7033A231D6D
:10428000511EE4D004461846FCF794F9204601B0CC
:10429000BDE8F0407047000010B540F65042C2F251
:1042A000000202F1080302F1100002F11801C2E954
:1042B0000233C2E90400C2E9061102F1200002F152
:1042C000280102F1300302F13804C2E90800C2E912
:1042D0000A11C2E90C33C2E90E4402F1400002F1B6
:1042E000480102F1500302F15804C2E91000C2E98A
:1042F0001211C2E91433C2E9164402F1600002F15E
:10430000680102F1700302F17804C2E91800C2E901
:104310001A11C2E91C33C2E91E4402F1800002F105
:10432000880102F1900302F19804C2E92000C2E979
:104330002211C2E92433C2E9264402F1A00002F1AD
:10434000A80102F1B00302F1B80440F2B40CC2E9D2
:104350002800C2E92A11C2E92C33C2E92E4402F135
:10436000C00002F1C80102F1D00302F1D804C2F288
:10437000000C4FF0000EC2E93000C2E93211C2E970
:104380003433C2E9364402F1E00002F1E80102F1FF
:10439000F00302F1F804ACF802E0C2E90022C2E93D
:1043A0003800C2E93A11C2E93C33C2E93E44CCF8D4
:1043B00008E010BD70B540F2B405C2F20005A8686F
:1043C000FDF7BAF840F65046C2F2000606EBC00010
:1043D00050F8084CA4F114006860FBF763FFD4E9BF
:1043E00000124A60116094F82110246056F83120C0
:1043F00006EBC1018A42646004D1616AAA6822EABC
:104400000101A960FBF752FF032104F1080084F8C1
:104410002010BDE87040FBF792BF000040F2C000E2
:10442000C2F20000011DC0E9011170477047000091
:1044300040F23C01C2F200010A6840F8142F5060BB
:10444000086041607047000040F23C05C2F2000580
:104450002868A84203D100BFFEE700BF28460646F1
:10446000A842284603D1FAE72E68AE42F6D0A6F15C
:104470001404FBF717FFD6E900124A601160C6E981
:104480000066FBF713FFF66D2046FFF7B5FC012829
:1044900002D12046FFF748FC002EE5D02046B04769
:1044A000E2E70000B0B586B004AC12A120460022BD
:1044B000FFF756FE40F650528021C2F2000240F251
:1044C000D0651F20CDE90021C2F2000544F2494227
:1044D0004FF0200C0290C0F600022846214600232F
:1044E000CDF80CC000F00AF8284600F099F806B0A4
:1044F000B0BD00BF7469646C652564002DE9F047A8
:1045000082B00DF1280A16460A46DDF834909AE882
:10451000800501211D460446FFF72EFC04F114001E
:10452000C4E90500384623214246C4E90865C4E9C8
:104530000A78FFF771FB04F120030FCB1A4441F214
:104540007153043AC0F60003FFF794F941F2AD52FB
:10455000E061002704F14400C0F600022146234632
:1045600084F835A0C4E90E79C4F84090276384F834
:104570003470C4E91C770097019700F0A9F9002076
:1045800002B0BDE8F087000080B500F075F8BDE826
:10459000804000F007B8000040F2B800C2F200000E
:1045A00000687047F0B581B040F2B801C2F2000176
:1045B0000C680090FBF776FE054694F83400002165
:1045C00000F005000128216313D1FBF76BFE0646BE
:1045D0002046FFF727FD94F8340000F0F800023081
:1045E00084F8340004F1440000F0EEF93046FBF7A3
:1045F0005DFE04F144066A4630460021002700F0C3
:1046000015F9304600F07EF92846FBF74FFEFFF71C
:10461000F7FB206B811C04BF2763002001B0F0BDB5
:10462000B0B5044690F83500012101FA00F0A0630E
:10463000022084F83400FBF735FE2246A16952F8C7
:10464000143F054604F1440059600B60A2611260FA
:1046500000F0BAF92046FFF7A5FC2846FBF726FE36
:1046600040F2B800C2F200000068002818BFFFF74F
:10467000C7FB0020B0BD000040EAE07070470000BA
:1046800040F6D450C2F200000068704710B5FBF746
:1046900009FE40F6D451C2F200010A680446501CDB
:1046A0000860FFF779FF016C0139016406D02046EC
:1046B000FBF7FCFDBDE8104000F012B8C16B90F8AC
:1046C0003420016442F0080180F834102046FBF7E2
:1046D000EDFDFFF795FBBDE8104000F001B80000CC
:1046E0002DE9F04F83B00DF10408CDE90188FFF703
:1046F000C7FF0546FBF7D6FD40F2C004C2F2000436
:10470000214651F8046F00908E4200F089804FF6E8
:10471000FE79C7F6FF796FF0004B16E01F4603469F
:1047200020685E600130206016F80B0C336040F0AA
:10473000010006F80B0C50463E607760FBF7B6FDB3
:10474000204650F8046F86426AD07069281A48459E
:1047500066D8D6E9002116F80B0C51600A60810773
:1047600036605CBF00F0FC0006F80B0C0198466058
:104770003060D6E902100196C6F804808847FFF73A
:104780007FFF019905464145DAD0D6E9001048601F
:10479000016016F80B0C366000F003010329766007
:1047A000CED100F0FE0006F80B0CFBF77BFD824635
:1047B00016F80B0CD6E9002100F0FE0051600A60EB
:1047C0003660766006F80B0CFFF75AFF3169A26875
:1047D0000144231D7161186893429FD047697F1A75
:1047E00001D05F459AD30368904217D05F697F1A62
:1047F00001D05F4512D3186893428FD047697F1A62
:1048000002D05F45FFF48AAF0368904206D05F692B
:104810007F1AE0D04F450746DDD881E707467FE79E
:104820000098FBF743FD03B0BDE8F08F70B5144668
:104830000E460546FBF736FD052E07D8DFE806F0E5
:104840000424141C0A2A00BF21686962FBF72EFDAC
:10485000002070BD697AC9070CBF002101212160C9
:10486000FBF724FD002070BD697A01F0FD0169723B
:10487000FBF71CFD002070BD697A41F002016972EE
:10488000FBF714FD002070BD696A2160FBF70EFD87
:10489000002070BDA96A2160FBF708FD002070BDF3
:1048A00010B50446FBF7FEFC2246A16952F8143FFE
:1048B00059600B60617AA26101F0FE0112606172C1
:1048C000FBF7F4FC2046FFF72FFA002010BD000094
:1048D0002DE9F04115460A46DDE906870A211C4606
:1048E0000646FFF749FA07F0FE007072002006F155
:1048F0001401C6E90511C6E90754C6E90980BDE8F7
:10490000F08100002DE9F0410446FBF7CBFC264680
:1049100056F8141F804616F80B0C726800F0FE0063
:104920004A6011603660766006F80B0CFFF7A8FE4F
:1049300040F2C00E3169C2F2000EDEF808304FF6C8
:10494000FE7C0A180EF104076FF00045C7F6FF7CE5
:10495000726139689F421FD04869801A01D0A8420D
:104960001AD30F6899421BD07869801A01D0A842E7
:1049700016D339689F420FD04869801A01D0A842E7
:104980000AD30F6899420BD07869801AE1D060454C
:104990000846DED805E000BF38460F4601E000BFFC
:1049A0000846DEF800107E600131CEF80010617A12
:1049B00067610660A06141F0010060724046FBF74C
:1049C00075FC0020BDE8F08110B50446407AC007B0
:1049D00004BF4FF0FF3010BDFBF764FC54F8141F08
:1049E00062684A60116014F80B1C246001F0FE013B
:1049F000646004F80B1CFBF759FC002010BD00009C
:104A00002DE9F04F85B09B46144600EB010A4FF0AC
:104A100020080391002948BF4FF0FF3A049009E0B5
:104A20000BF1040BF7B2CDE9001C51460297FEF7DB
:104A300097F901342178252908D0002900F0D8837E
:104A4000504538BF017001300134F3E702340026CD
:104A500014F8017CA7F12002102A00F26D801021C9
:104A6000DFE802F00A6A6A0E6A6A6A6A6A6A6A0CAF
:104A70006A126A6A100000BF082105E0042103E001
:104A8000202101E0012100BF27780E43A7F1200279
:104A9000102A00F289801021DFE802F00A86860ED3
:104AA000868686868686860C86128686100000BFDD
:104AB000082105E0042103E0202101E0012100BFDD
:104AC00067780E43A7F12002102A00F2938010218C
:104AD000DFE802F00A90900E909090909090900CE9
:104AE00090129090100000BF082105E0042103E01F
:104AF000202101E0012100BFA7780E43A7F1200289
:104B0000102A00F27F801021DFE802F00E7C7C107A
:104B10007C7C7C7C7C7C7C127C0A7C7C140000BFCE
:104B20000E43043494E700BF0821F9E72021F7E79A
:104B30000421F5E70121F3E7A21E013CA7F13001B2
:104B4000092936D80234002101EB810107EB41012C
:104B500014F8017C3039A7F13002092A5AD801EB48
:104B6000810107EB410127783039A7F13002092A8A
:104B700052D801EB810107EB410167783039A7F189
:104B80003002092A00F28C8001EB810107EB410120
:104B9000A7783039A7F130020A2A04F10404D3D3EC
:104BA000023C2E2F3AD018E0621EA7F130010929ED
:104BB000C8D92A2F0CD15BF8041B941CB1F1FF3F1C
:104BC000DCBF494246F0100627782E2F26D004E09D
:104BD00027784FF0FF312E2F20D04FF0FF3C47F0C9
:104BE00004026C2A6CD0BE460027AEF12505532D79
:104BF0006DD9CDE022460134A7F130010929D8D87A
:104C0000A0E700BF621C0234A7F13001092999D93D
:104C1000CFE700BF013C00BF2E2FDED1224612F8A5
:104C2000017FA7F13003092B2ED8A21C002300BF5F
:104C300003EB830307EB43031778303BA7F1300501
:104C4000092D35D803EB830307EB43035778303B3B
:104C5000A7F13005092D27D803EB830307EB4303A6
:104C60009778303BA7F13005092D1FD803EB83035C
:104C700007EB4303D778303BA7F130050A2D02F14B
:104C80000402D5D3013A13E02A2F05D114F8027F8C
:104C90005BF8043B22460BE04FF0FF3308E000BF17
:104CA00001342E2FBAD098E7013201E0023200BF62
:104CB00023EAE37C144647F004026C2A7FF493AFA6
:104CC00014F801EFAEF12505532D00F261800A239F
:104CD000DFE815F058005E005E005E005E005E00DA
:104CE0005E005E005E005E005E005E005E005E00D4
:104CF0005E005E005E005E005E005E005E005E00C4
:104D00005E005E005E005E005E005E005E005E00B3
:104D10005E005E005E005E005E005E005E005E00A3
:104D20005E005E005E005E005E005E005E005E0093
:104D30005E005E005E005E005E0072005E005E006F
:104D40005E005E005E005E005E005E005E005E0073
:104D5000800054005E005E005E005E0054005E0055
:104D60005E005E005E005E007000C4005E005E00DB
:104D700098005E0075005E005E00740046F002065A
:104D80001DE000BF5045BFF45EAE252101705AE61C
:104D9000504503D22521017094F800E0BEF1000FC8
:104DA00000F101016ED0514538BF81F800E00230BA
:104DB00001343FE6082302E046F040061023DBF80A
:104DC0000020682F7FF42CAEB7074CBF12B292B20E
:104DD00026E600BFF20653D40229A1F1010357DBF6
:104DE00013F00306A1F1020758D0504538BF80F8F0
:104DF0000080012E00F1010258D13B46032F80F0C4
:104E00000B8125E15BF8049B0FF20842B9F1000F1A
:104E100008BF9146D1B3A1F1030E4A42002719F809
:104E20000750002D55D0D5196B1C15D009EB07087C
:104E300098F80130C3B3AB1C2ED098F80230002B89
:104E400042D0BE4528D098F80330002B3ED004371E
:104E5000D3194FF02008E2D10F463AE04A1CB2FACB
:104E600082F24FEA521246EA020308BF08215BF8B9
:104E7000042BDFB2CDE9001C51461023D6E500BF5C
:104E80000246E6E0013C08460134D3E5002720E075
:104E900002461946DDE000BF0F4618E00246032F28
:104EA00080F0BA80D4E000BF013710E0524538BF2F
:104EB00082F80080022E00F1020240F0A580CB1E95
:104EC000032F80F0A980C3E0023700E003374FF0E2
:104ED00020086745E646B8BFBE46BCF1000FD8BF04
:104EE000BE46F20619D47145A1F1010614DDA1EB0D
:104EF0000E0212F003026DD0504538BF80F80080DA
:104F0000012A00F101076DD18E1E6FEA0E000844E0
:104F1000032880F0FE8017E13146BEF1010FC0F298
:104F20001A81BEF1040F03D21EF0030236D14DE008
:104F30004FF6FC72C7F6FF720EEA0206002702E087
:104F40000437BE4224D0C219524502F101053CBFCC
:104F500019F80730137055450AD209EB07035B783F
:104F60002B70951C554506D303325245E8D209E013
:104F7000951C5545F8D209EB07039B782B7003323B
:104F80005245DDD209EB0703DB781370D8E700BF89
:104F90003844B94407461EF0030217D050453CBFC1
:104FA00099F800300370012A00F101070ED057452F
:104FB0003CBF99F801303B70022A00F1020705D08E
:104FC00057453CBF99F802203A70C71C714500F361
:104FD000C580EDE007466FEA0E000844032880F024
:104FE0009880B1E0574538BF87F80080022A00F169
:104FF000020740F08380CE1E6FEA0E0008440328AB
:1050000080F08780A0E000BF524538BF82F8008062
:10501000C21C0B1F032F1BD3181D00BF524502F1EA
:10502000010138BF82F80080514538BF81F8008007
:10503000911C514538BF81F80080D11C5145A0F129
:10504000040038BF81F80080042802F10402E5DC86
:10505000002152453CBFDBF8000010700BF1040B3F
:10506000022902F10100FFF6E4AC4E1E16F0030720
:10507000A1F1020315D0504538BF80F80080012F00
:1050800002F1020004D13146032BFFF4D2AC0BE055
:10509000504538BF80F80080022F02F1030023D171
:1050A0001946032BFFF4C5AC023900BF504500F18F
:1050B000010238BF80F80080524538BF82F8008076
:1050C000821C524538BF82F80080C21C5245A1F1B3
:1050D000040138BF82F8008011F1030F00F10400D1
:1050E000E4D3FFF7A6BC00BF504538BF80F800806E
:1050F0000339101D032BFFF49CACD5E7574538BF8F
:1051000087F80080C71C0E1F6FEA0E0008440328B2
:105110001AD3701C574507F1010138BF87F800808A
:10512000514538BF81F80080B91C514538BF81F81E
:105130000080F91C5145A0F1040038BF81F80080BF
:10514000864507F10407E5DBAEF101013846BEF103
:10515000010FBFF6E6AE0746714529DDA1EB0E0053
:1051600010F00302384609D0504538BF80F800805F
:10517000012A00F1010705D14B1E13E00B4607463B
:1051800010E000BF574538BF87F80080022A00F1C1
:10519000020701D18B1E05E0574538BF87F8008014
:1051A000CB1EC71C6FEA0E0008440328384603D202
:1051B00038460134FFF73EBC504500F1010138BFCD
:1051C00080F80080514538BF81F80080811C51452E
:1051D00038BF81F80080C11C5145A3F1040338BFDA
:1051E00081F800809E4500F10400E5DBFFF721BC5B
:1051F0000399049B002948BFD94331B101460022DD
:10520000504528BFAAF101010A70C01A05B0BDE8D7
:10521000F08F00BF284E554C4C29000000207047ED
:1052200000207047002070470020704780B540F292
:10523000CC0041F20001C2F20000C4F201010023DF
:105240004FF00C0C4FF4E13280E80E00C0E903335C
:10525000C0E905C3C361FBF71FFF08B1FEE700BF4C
:10526000002080BD80B5FEF717FF002080BDF1EE65
:10527000100A4FF6FF71C0F2C03120EA010040F081
:105280004070E1EE100A70470000000000000000CE
:1052900001020304060708090000000001020304DC
:1052A00000000100020001000300010002000100F3
:1052B00004000100020001000300010002000100DF
:1052C00005000100020001000300010002000100CE
:1052D00004000100020001000300010002000100BF
:1052E00006000100020001000300010002000100AD
:1052F000040001000200010003000100020001009F
:10530000050001000200010003000100020001008D
:10531000040001000200010003000100020001007E
:10532000070001000200010003000100020001006B
:10533000040001000200010003000100020001005E
:10534000050001000200010003000100020001004D
:10535000040001000200010003000100020001003E
:10536000060001000200010003000100020001002C
:10537000040001000200010003000100020001001E
:10538000050001000200010003000100020001000D
:1053900004000100020001000300010002000100FE
:1053A000636C65617200636C65617220746865206E
:1053B0007465726D696E616C2073637265656E00F1
:1053C00076657273696F6E0073686F772052542D23
:1053D0005468726561642076657273696F6E2069C6
:1053E0006E666F726D6174696F6E006C6973745F65
:1053F000746872656164006C6973742074687265A6
:105400006164006C6973745F73656D006C697374BB
:105410002073656D6170686F726520696E207379A5
:105420007374656D006C6973745F74696D65720087
:105430006C6973742074696D657220696E2073796C
:105440007374656D006C697374006C697374206F9C
:10545000626A656374730068656C700052542D5401
:105460006872656164207368656C6C2068656C7037
:105470002E007265626F6F74005265626F6F7420E8
:1054800053797374656D00706572696F6469630A3E
:1054900000252D2A2E732070726920207374617488
:1054A000757320202020202073702020202020735E
:1054B0007461636B2073697A65206D617820757300
:1054C0006564206C656674207469636B2020657266
:1054D000726F720A006F6E652073686F740A0061E4
:1054E00063746976617465642020200020696E69A8
:1054F000742020200020636C6F73652020002072D0
:105500006561647920200064656163746976617403
:1055100065642000252D2A2E2A7320307825303806
:10552000782030782530387820002D007468726536
:105530006164002073757370656E64002072756E0F
:105540006E696E670074696D65720052542D5468FF
:1055500072656164207368656C6C20636F6D6D614A
:105560006E64733A0A00252D313673202D20257381
:105570000A0008006D73682000256300686172648A
:10558000206661756C74206F6E2068616E646C6556
:10559000720D0A0D0A0068617264206661756C7490
:1055A000206F6E207468726561643A2025730D0A5D
:1055B0000D0A0046505520616374697665210D0A15
:1055C000006D656D206D616E616765206661756C4B
:1055D000743A0A007573616765206661756C743A88
:1055E0000A00627573206661756C743A0A00534351
:1055F000422D3E424641523A253038580A00534324
:10560000422D3E4D4D41523A253038580A006661D0
:10561000696C656420766563746F72206665746377
:10562000680A006465627567206576656E740A00B5
:105630007230303A203078253038780A00723031B4
:105640003A203078253038780A007230323A2030EB
:1056500078253038780A007230333A203078253097
:1056600038780A007230343A203078253038780A99
:10567000007073723A203078253038780A00494E2D
:105680005650432000554E414C49474E454420005A
:10569000494E5653544154452000444143435649D2
:1056A0004F4C20004941434356494F4C2000444948
:1056B0005642595A45524F20004E4F435020004DFC
:1056C00053544B45525220004D554E53544B455266
:1056D000522000494D5052454349534552522000F3
:1056E000494255534552522000554E444546494E75
:1056F00053545220005343425F434653525F424645
:1057000053523A30782530325820005343425F4399
:105710004653525F4D4653523A3078253032582026
:10572000005343425F434653525F554653523A300B
:10573000782530325820006D61696E000A205C20A7
:105740007C202F0A004F4B0045494E56414C0045E6
:10575000525346554C4C00454E4F4D454D00454922
:105760004F004552524F5200454E4F53595300453A
:10577000494E54525054004554494D4F55540045DC
:10578000554E4B4E4F5700454255535900455253C5
:1057900045505459000000002952000821520008C9
:1057A0002D5200081D520008DD1600082552000881
:1057B000A0530008A6530008E1150008C0530008D4
:1057C000C853000865520008EB530008F75300085F
:1057D000051E0008035400080C5400088D1B000827
:1057E00025540008305400087D2000084554000866
:1057F0004A540008F5150008575400085C54000886
:10580000052D00087254000879540008DD320008A4
:10581000305800080000002048000000FC0100088B
:105820007858000848000020981300001C02000867
:1058300001000000100000000024F400010000003E
:10584000100000201000002078000000020000007E
:105850002000002020000020200000000A0000009E
:1058600030000020300000202C0000003C00002010
:085870003C00002000000000D4
:040000050800019955
:00000001FF
