:020000040800F2
:10000000E814002059020008811C00088103000840
:100010007D1C0008AD070008F12600080000000064
:100020000000000000000000000000006B0200085B
:10003000B107000800000000C7020008CD1D00083D
:1000400073020008730200087302000873020008BC
:1000500073020008730200087302000873020008AC
:10006000730200087302000873020008730200089C
:10007000730200087302000873020008730200088C
:10008000730200087302000873020008730200087C
:10009000730200087302000873020008730200086C
:1000A000730200087302000873020008730200085C
:1000B0007302000800000000000000007302000846
:1000C0007302000800000000000000007302000836
:1000D0000000000073020008730200080000000026
:1000E0007302000873020008000000000000000016
:1000F0000000000000000000000000000000000000
:100100000000000000000000000000007302000872
:1001100000000000000000007302000873020008E5
:1001200073020008730200087302000873020008DB
:100130007302000800000000000000000000000042
:1001400073020008730200087302000873020008BB
:1001500073020008730200087302000873020008AB
:100160007302000873020008730200080000000018
:100170007302000873020008000000000000000085
:1001800073020008730200087302000800F002F80E
:1001900000F052F814A696E8000CB244B344DA45D5
:1001A00001D100F049F8BAE80F000FA696E8300038
:1001B000A5EB040504EB0607AAEB0704A7F101076A
:1001C0004FEA15154FEA3414A4F10104AC4201D3EF
:1001D00000F032F813F0010F18BFFB1A43F00103CF
:1001E00000F001F8DBE7184794680000B4680000ED
:1001F000103A24BF78C878C1FAD8520724BF30C853
:1002000030C144BF04680C607047000070470000B4
:100210000023002400250026103A28BF78C1FBD80F
:10022000520728BF30C148BF0B6070471FB506F0AA
:1002300034F91FBD10B510BD00F04CFA1146FFF7A0
:10024000F5FF00F07DFA00F06AFA03B4FFF7F2FF61
:1002500003BC00F06DFA00000948804709480047D8
:10026000FEE7FEE7FEE7FEE7FEE7FEE7FEE7FEE766
:10027000FEE7FEE704480549054A064B70470000C3
:100280004D1F00088D010008E80E0020E814002032
:10029000E8100020E8100020EFF3108072B67047DD
:1002A00080F310887047444A1368012B04D04FF044
:1002B00001031360414A1060414A116041484FF008
:1002C000805101607047EFF3108272B63A480168BE
:1002D00051B34FF0000101603848016891B1EFF36C
:1002E00009811EF0100F08BF21ED108B21E9F00FDE
:1002F0004FF000041EF0100F08BF012441F8044D18
:10030000006801602E490968096808C9B1E8F00F62
:10031000002B18BF00F05EB881F309884EF0100E74
:10032000002B18BF2EF0100E82F310884EF0040E32
:10033000704723490860EFF3148222F0040282F32D
:1003400014881E494FF0000008601B494FF001005F
:1003500008601D481D49D0F8002041EA02010160F3
:1003600018484FF08051016019480068006880F318
:10037000088861B662B6BFF34F8FBFF36F8F7047C7
:100380001EF0040F0CBFEFF30880EFF3098020E9A3
:10039000F00F40F804ED40F804ED1EF0040F0CBF20
:1003A00080F3088880F3098800B504F04FF95DF800
:1003B00004EB4EF0040E7047D80E0020CC0C002049
:1003C000D40C002004ED00E020ED00E00000FFFF71
:1003D00008ED00E0B1EC088BB1EC08CBFFF79CBF57
:1003E00053EA020C00F069802DE9F04B4FF0000653
:1003F000002B1FBFB3FA83F503FA05F424FA05F6C0
:100400005E4012BF1643B2FA82F502FA05F4C5F156
:1004100020051EBF22FA05FC44EA0C04203556EAEA
:10042000044C4FEA144418BF641C4FF000084FF00E
:100430000009904271EB030C39D3002919BFB1FABE
:1004400081F701FA07F6B0FA80F700FA07F6C7F16C
:1004500020071EBF20FA07FC46EA0C062037B6FB31
:10046000F4FCA7EB0507103F07F01F0BCBF12006AC
:100470002CFA06F60CFA0BFB44BFB3460026202FDD
:10048000A4BF5E464FF0000B5BEA060C08BF4FF0BE
:10049000010B19EB0B0948EB0608ABFB027C06FBD2
:1004A00002CC0BFB03CCC01B71EB0C01C1E70B466C
:1004B000024641464846BDE8F08B13B5084318BFD5
:1004C0004FF0FF300146AFF30080BDE81C4070479D
:1004D00010B5431C02E010F8011B71B18107FAD17D
:1004E0004FF0013202C88C1A8C4314EAC211F9D0C1
:1004F000C01A0A0603D0C01E10BDC01A10BD0A04DF
:1005000001D0801E10BD0902FCD0401E10BD40EA83
:10051000010370B59B072ED14FF00136042A2AD370
:1005200008C810C99D1B9D43121F15EAC61517D098
:10053000D8B2E1B2401A50EA056110D198B2A1B226
:10054000401A50EA05410AD123F07F4024F07F4150
:10055000401A50EA052102D1180EA0EB146070BDBC
:10056000A342DBD018BA21BA884201D9012070BD5C
:100570004FF0FF3070BD0AB9002070BD10F8013B8C
:1005800011F8014B63B1A3420AD1521E08D010F8F2
:10059000013B11F8014B1BB1A34201D1521EEDD119
:1005A000181B70BD02F0FF0343EA032242EA024235
:1005B00000F002B84FF000020429C0F0128010F0E1
:1005C000030C00F01B80CCF1040CBCF1020F18BF2F
:1005D00000F8012BA8BF20F8022BA1EB0C0100F0C2
:1005E0000DB85FEAC17C24BF00F8012B00F8012B95
:1005F00048BF00F8012B70474FF0000200B51346CA
:1006000094469646203922BFA0E80C50A0E80C5032
:10061000B1F12001BFF4F7AF090728BFA0E80C50E3
:1006200048BF0CC05DF804EB890028BF40F8042BDC
:1006300008BF704748BF20F8022B11F0804F18BF49
:1006400000F8012B7047000030B44FF0013C50F827
:10065000042B51F8043BCCFA52F4D51A20D1FCB942
:1006600050F8042B51F8043BCCFA52F4D51A17D1A8
:10067000B4B950F8042B51F8043BCCFA52F4D51A13
:100680000ED16CB950F8042B51F8043BCCFA52F45B
:10069000D51A05D1002CDAD030BC4FF000007047DD
:1006A00029BAB1FA81F111F01801D1F1200084408A
:1006B000F2D1CA40CB4012F0FF0213F0FF0330BC6E
:1006C000D01A704770477047704700000048704765
:1006D000480000207546FFF7F9FFAE460500694661
:1006E000534620F00700854618B020B5FFF7C2FD3D
:1006F000BDE820404FF000064FF000074FF0000823
:100700004FF0000BAC46ACE8C009ACE8C009ACE85F
:10071000C009ACE8C00921F007018D46704710B54B
:100720000446AFF300802046BDE81040FFF78DBDC2
:1007300001491820ABBEFEE726000200704700000A
:1007400010B584B0FFF7A8FD03F01AFF04F0B2FD66
:1007500004F072FF04F0AEFE40F650024FF48061E8
:10076000C2F2000240F650440A20CDE90021C2F254
:10077000000446F6A31143F6A9124FF0140C0290A0
:10078000C0F60001C0F6000220460023CDF80CC0E0
:1007900004F0C2FF204605F051F804F055FF04F0C4
:1007A0008FFF04F015FF002004B010BDFEE700002D
:1007B00070470000EFF3108072B600BFFEE7000044
:1007C0002DE9F04F83B00C68002C00F0CF8000F1D1
:1007D000200240F2004E009240F60002C4F2010EE8
:1007E000C4F600020723002500274FF000089042BE
:1007F00008BF022301934DE040F20042C4F600021C
:10080000DDF80490904208BF4FF0010905F00C0696
:100810000F22B2402CEA020209FA06F64FEA9803C8
:10082000324344F82320DEF808204B6842EA0A06E7
:1008300040F20C4CDC0258BF22EA0A06CEF80860EF
:10084000C4F2010CDCF800209C0242EA0A0658BF00
:1008500022EA0A06CCF80060DEF804209C0342EA93
:100860000A0658BF22EA0A06CEF80460DEF8002025
:10087000DB0342EA0A0658BF22EA0A06CEF8006005
:100880000C6808F1010834FA08F207F1020705F1D3
:1008900004056BD0012202FA08FC14EA0C0AEFD01E
:1008A000D1F804B003230BF00304621E03FA07F629
:1008B000012A6FEA060911D88268CE6802EA0902A5
:1008C000BE40324382604268CBF3001622EA0C023B
:1008D00006FA08F63243426004E000BF032C01D15F
:1008E00003241EE0C2688E6802EA0902BE40324359
:1008F000022CC26015D16FF0030202EA580B009A75
:1009000005F01C0452F80BC00F230E69A3402CEA1B
:100910000303A640334342F80B30D1F804B00BF088
:100920000304026804FA07F302EA09021A431BF4FB
:10093000403F0260A4D041F26003C4F202031A688F
:10094000AEF57E7442F001021A601A68B0F1904F61
:1009500002F001020292029A28F0030254F802C047
:100960007FF44AAF4FF0000950E700BF03B000F03A
:1009700000B830BCBDE8C08F1823002A08BF282368
:10098000C150704740F6E060C2F200000068704756
:1009900080B5032000F07AF8002000F009F8002864
:1009A0001CBF012080BD00F02BF8002080BD00009E
:1009B000B0B540F20005C2F200052978F1B1044655
:1009C00040F20800C2F200004FF47A720068B2FBF5
:1009D000F1F1B0FBF1F000F0BDFF01460F2C4FF03C
:1009E00001000AD8002918BFB0BD4FF0FF302146E2
:1009F000002200F01FF800206C60B0BD0120B0BDE7
:100A000082B041F25800C4F20200816841F0010155
:100A10008160816801F0010101910199016841F053
:100A200080510160006800F080500090009802B092
:100A30007047000010B54EF60C5CCEF2000CDCF8EE
:100A40000030C3F3022E8EF00704042C28BF0424C8
:100A5000BEF103034FF0FF3E0EFA04F438BF00234B
:100A6000A14399400EFA03F39A43114300F00F0299
:100A700000F160430901043A03F56443624400282D
:100A800048BF02F10C03197010BD00004EF60C5166
:100A9000CEF200010A684FF6FF031A4060F30A2203
:100AA00042F0806040F0FD700860704747F200013E
:100AB000C4F200010A68B0F5007F02F4C06031D1D1
:100AC000B0F5007F2CD00868012262F34A2008604C
:100AD00040F20800C2F200000068322250434DF696
:100AE0008362C4F21B32A0FB0202900C4A695205D9
:100AF00011D5421C0FD04A6952050CD558B14A692C
:100B0000520508D5012806D04A69520503D50228A6
:100B1000A0F10400EAD14869400544BF03207047B2
:100B200000207047B0F5806FFAD00868022262F3A7
:100B30004A2008600020704747F20000C4F200001D
:100B4000006800F4C060704747F20000C4F2000083
:100B5000016841F4807101607047000041F20000BB
:100B6000C4F20200016841F0040101607047000016
:100B70002DE9F04381B00446407841F28807000730
:100B8000C4F202071ED5E06B80B1B0F5400F14D05F
:100B9000B0F5000F40F0148157F87C0C40F4803021
:100BA00047F87C0C4FF4000007E000BF201D002137
:100BB00001F068F8814638B9E06B396821F44001EA
:100BC000084338604FF00009A078800752D557F8E5
:100BD000300C5FEAC0080BD457F8300C40F080505E
:100BE00047F8300C57F8300C00F080500090009817
:100BF00047F20005C4F20005286840F480702860C0
:100C0000FFF7C0FE064600BF2868C00508D4FFF7FE
:100C1000B9FE801B0228F7D94FF0030921E000BF7D
:100C2000B9F1000F1DD1B86810F4407011D0216DDA
:100C300088420BD0B868B96820F4407041F4803124
:100C4000B960B96821F48031B960B860C00740F07C
:100C5000BF80B868216D20F4407008434FF0000950
:100C6000B860B8F1000F05D457F8300C20F0805070
:100C700047F8300C2168C8070ED1880714D48806BD
:100C80001AD4880520D4480526D448062CD4C80593
:100C900032D4880438D449E03868226A20F003004E
:100CA000104338608807EAD53868626A20F00C0083
:100CB000104338608806E4D53868A26A20F44060A2
:100CC000104338608805DED53868626B20F4402018
:100CD000104338604805D8D53868A26B20F440101E
:100CE000104338604806D2D53868E26A20F4405094
:100CF00010433860C805CCD53868226B20F44030EA
:100D000010433860880411D53A68206C22F04062A4
:100D10000243B0F1806F3A601ED0B0F1006F05D190
:100D200057F87C0C40F4801047F87C0C480327D51A
:100D30003A68606C22F040620243B0F1806F3A6022
:100D400016D0B0F1006F1BD157F87C0C40F4801026
:100D500047F87C0C14E000BF201D012100F092FF39
:100D60002168002818BF81464803E1D408E000BF8D
:100D7000201D012100F086FF2168002818BF814650
:100D8000480410D53868A26C20F040501043B2F1EE
:100D9000805F386007D1201D022100F073FF2168B9
:100DA000002818BF8146080405D53868E16C20F09A
:100DB000804008433860484601B0BDE8F08300BF7A
:100DC0004FF00109A07880073FF501AF52E700BF5F
:100DD000FFF7D8FD064641F288354FF0030900BF02
:100DE000B86880073FF535AFFFF7CCFD801BA84200
:100DF000F6D936E72DE9F04381B0002800F08C8069
:100E000042F20009C4F202090446D9F8000000F0D9
:100E1000070081420CD9D9F8000020F007000843F0
:100E2000C9F80000D9F8000000F00700884273D12B
:100E3000206841F2080610F00202C4F202060AD04D
:100E4000A368376807F0F007BB4204D9376827F07A
:100E5000F0073B433360C30734D0606856F8082C72
:100E600050B1022804D003280AD192010AD453E0D9
:100E7000920307D450E000BF920703D44CE000BFB8
:100E8000520549D58846316821F003010843306096
:100E9000FFF778FD054641F2883700BF306861688A
:100EA00000F00C00B0EB810F08D0FFF76BFD401B8A
:100EB000B842F3D9032001B0BDE8F0832068414671
:100EC00000F0020252B1A268336803F0F0039A42C4
:100ED00004D2336823F0F0031A433260D9F80020BB
:100EE00002F0070291420CD2D9F8002022F007024A
:100EF0000A43C9F80020D9F8002002F007028A420C
:100F00000AD141070CD4000712D43068716810F080
:100F10000C0019D11EE000BF012001B0BDE8F08334
:100F20003168E26821F4E061114331600007ECD5DB
:100F30003068216920F4605040EAC10030603068B8
:100F4000716810F00C0005D00C282BD101F00301C2
:100F5000012927D156F8081C042211F008016FF06E
:100F6000070108BF8C21715808BF0822D14046F202
:100F7000CC4201F00F01C0F6000252F82110002807
:100F80000A4618BF00220C2838D1706800F0030010
:100F9000022811D0032804BF41F20021C0F27A01D7
:100FA0000EE000BF04281FD0082823D141F2002200
:100FB000C0F27A0222E000BF42F20041C0F2F40126
:100FC00070687268C0F30210C2F30622514372685F
:100FD0000130B1FBF0F0C2F34161022202EB4101AA
:100FE000B0FBF1F20AE000BF42F20042C0F2F402AC
:100FF00004E000BF002200210C28C6D0306846F271
:10100000B441C0F30310C0F60001085C00F01F00FB
:1010100022FA00F140F20400C2F2000040F208029D
:101020000068C2F20002116001B0BDE8F043FFF7B2
:10103000BFBC000040F20800C2F200000068704728
:1010400040F2080041F20801C2F20000C4F20201BD
:101050000068096846F2C442C1F30221C0F60002EA
:10106000515C01F01F01C8407047000040F20800C9
:1010700041F20801C2F20000C4F2020100680968EE
:1010800046F2C442C1F3C221C0F60002515C01F035
:101090001F01C8407047000041F20C01C4F2020178
:1010A00051F8040C10F00C02086805D00C2A2BD162
:1010B00000F00300012827D151F80C0C042310F094
:1010C00008006FF00B0008BF8820085808BF0823ED
:1010D000D84046F2CC4300F00F00C0F6000353F8AE
:1010E0002030002A184618BF00200C2A18BF70476D
:1010F000086800F00300022810D0032804BF41F262
:101100000023C0F27A030DE0042A1FD0082A23D15D
:1011100041F20020C0F27A00704700BF42F2004363
:10112000C0F2F40308680A68C0F30210C2F3062292
:10113000096801305A43B2FBF0F0C1F34161022269
:1011400002EB4101B0FBF1F0704700BF42F20040FA
:10115000C0F2F400704700BF00200023C5E7000084
:10116000002804BF012070472DE9F04383B041F20D
:1011700000060446C4F20206B068F168227800F066
:101180000C09D00601F003081ED42078C00700F037
:101190008880B9F1080F00F07D80B9F10C0F08BF0D
:1011A000B8F1030F76D061683068B1F5803F07D0A1
:1011B000B1F5A02F40F0528240F4802030603068BA
:1011C00040F48030306053E2B9F1000F1CD0B9F127
:1011D0000C0F08BFB8F1010F16D0A16930680029C3
:1011E00000F0A08140F001003060FFF7CBFB054626
:1011F0003068800700F1A881FFF7C4FB401B02287C
:101200004FF00300F4D960E33068800703D5A0698C
:10121000002800F00F83256A3068000700F14A813A
:10122000D6F89400000900F0F000854200F24881F1
:101230003068B9F1000F40F008003060306820F0ED
:10124000F00040EA050030607068E16920F47F40FA
:1012500040EA0120706040F0B882B06DC00000F13B
:101260005582B06D40F08050B065B06D00F0805098
:1012700002900298FFF760FCB16D21F08051B165DA
:10128000B0F5007F00F04882802D40F28582032077
:101290008DE200BF3068800303D56068002800F04D
:1012A000C982207880072DD5B9F1040F1CD0B9F17F
:1012B0000C0F08BFB8F1020F16D0E16830680029A2
:1012C00000F0E68140F480703060FFF75BFB05467C
:1012D000306840050FD4FFF755FB401B02284FF044
:1012E0000300F5D9F1E200BF3068400503D5E0689E
:1012F000002800F09F827068216920F0F85040EAD1
:10130000016070602078000760D42078400779D4AD
:101310002078800600F1B280A06A002800F01683D1
:10132000022840F02381F068E16A00F003028A425B
:1013300040F03481226B6FF00F0300F0700103EB7B
:101340000212914240F02A81616B00F4FE42B2EB3E
:10135000012F40F02381A16B00F07842B2EBC16F06
:1013600040F01C81E26B0023CFF6E07303EA0252E7
:1013700000F4C001A2F50012914240F00F81216CEF
:101380004FF07E4202EA016100F0C06001F17E414F
:10139000884240F003813068800100F1D7823068D4
:1013A00040F080703060F06840F08070F060FFF7CF
:1013B000E9FA04463068800100F1C882FFF7E2FADA
:1013C000001B02284FF00300F4D97EE26169D6F8D1
:1013D0009400002900F0908040F00100C6F89400CD
:1013E000FFF7D0FA054600BFD6F8940080078CD4EA
:1013F000FFF7C8FA401B0228F6D9032003B0BDE866
:10140000F08300BFB06D5FEAC00808D4B06D40F053
:101410008050B065B06D00F080500090009847F2A9
:101420000007C4F200073868C00513D4386840F4D8
:1014300080703860FFF7A6FA054600BF3868C0051F
:1014400008D4FFF79FFA401B02284FF00300F5D99C
:101450003BE200BFA168D6F89000012908D0052919
:1014600040F0DC8040F00400C6F89000D6F8900010
:1014700040F00100C6F89000DCE000BF616AD6F8D9
:101480009800002900F0B48040F00100C6F89800F0
:10149000FFF778FA054600BFD6F8980080073FF5B9
:1014A0003BAFFFF76FFA401B02284FF00300F3D960
:1014B0000BE200BF306800F0F00085427FF6B8AE66
:1014C000B06DC00000F18680B06D40F08050B06516
:1014D000B06D00F0805001900198FFF72DFBB16DC9
:1014E00021F08051B165B0F5007F79D0802D40F2B8
:1014F000E1800320E9E000BF20F00100C6F894007D
:10150000FFF740FA054600BFD6F8940080077FF544
:10151000FCAEFFF737FA401B02284FF00300F3D967
:10152000D3E100BF20F001003060FFF72BFA054641
:10153000306880077FF529AEFFF724FA401B0228A8
:101540004FF00300F4D9C0E1306840F0080030608B
:101550003068D4E9071220F0F00010433060706862
:1015600020F47F4040EA012070600EE6B9F10C0FD4
:1015700000F06081306820F080703060FFF702FA80
:10158000044600BF3068800140F1EA80FFF7FAF9B5
:10159000001B02284FF00300F4D996E1B9F10C0FBB
:1015A00000F048813068400100F14481306820F04B
:1015B00080703060FFF7E6F9054600BF30688001B3
:1015C00040F18681FFF7DEF9401B02284FF003004F
:1015D000F4D97AE1FFF7B0FAB0F5007F7FF486AF77
:1015E000812D71D30120A02D88BF02206DE000BFA6
:1015F00020F00100C6F89800FFF7C4F9054600BFC7
:10160000D6F8980080077FF587AEFFF7BBF9401B3F
:1016100002284FF00300F3D957E100BF20F001008A
:10162000C6F89000D6F89000002920F00400C6F813
:10163000900079D0FFF7A6F9054641F2883700BF40
:10164000D6F89000800700F18180FFF79BF9401BDE
:10165000B842F5D9032003B0BDE8F08320F4803010
:1016600030603068002920F48020306000F08480F1
:10167000FFF788F9054600BF306880033FF511AEDB
:10168000FFF780F9401B64284FF00300F4D91CE1F8
:1016900020F480703060FFF775F90546306840052A
:1016A0007FF530AEFFF76EF9401B02284FF00300C4
:1016B000F4D90AE1A5F17000B0FA80F04009802D5C
:1016C00008BF022001E000BF002042F20001C4F286
:1016D00002010A6822F0070202440A60096801F068
:1016E0000701814240F0A680306840F00800306079
:1016F0003068D4E9071220F0F000104330607068C1
:1017000020F47F4040EA012070605EE0FFF714FAA9
:10171000B0F5007F7FF4B8AD812D47D30120A02D17
:1017200088BF022043E000BFFFF72CF9054641F2D5
:10173000883700BFD6F89000800707D5FFF722F959
:10174000401BB8424FF00300F4D9BEE0B8F1000FDF
:101750003FF5DEADB06D20F08050B065D8E500BF3C
:10176000F0684FF6FC71CFF6EE610840F0600020A3
:1017700003B0BDE8F08300BFFFF704F9054600BFE2
:10178000306880037FF58DADFFF7FCF8401B6428BF
:101790004FF00300F4D998E0A5F17000B0FA80F0A2
:1017A0004009802D08BF022001E000BF002042F266
:1017B0000001C4F202010A6822F0070202440A6032
:1017C000096801F00701814234D1B068F16810F076
:1017D0000C0005D00C2831D101F0030101292DD1D5
:1017E000314651F8942B12F00802324608BF0A46DF
:1017F0004FF00401126808BF082122FA01F146F2F5
:10180000CC4201F00F01C0F6000252F8211000286E
:101810000A4618BF00220C283CD1F06800F00300F3
:10182000022815D0032804BF41F20021C0F27A013A
:1018300012E000BF012003B0BDE8F08304281FD0F0
:10184000082823D141F20022C0F27A0222E000BF30
:1018500042F20041C0F2F401F068F268C0F30210F5
:10186000C2F306225143F2680130B1FBF0F0C2F33B
:101870004161022202EB4101B0FBF1F20AE000BF3C
:1018800042F20042C0F2F40204E000BF0022002154
:101890000C28C2D0B06846F2B441C0F30310C0F6C1
:1018A0000001085C00F01F0022FA00F140F2040081
:1018B000C2F2000040F208020068C2F200021160A9
:1018C000FFF776F800283FF460AC03B0BDE8F08382
:1018D000F06848F28C01C0F29D1104F12C0700EA77
:1018E000010C8ECF6FF00F00D4E90F5400EB021003
:1018F0000022CFF6E07241EA0C0102EA05520843E9
:10190000A2F500124FF07E4540EA032005EA046587
:10191000104305F17E4540EAC7602843F060306817
:1019200040F080703060F06840F08070F060FFF749
:1019300029F804463068800108D4FFF723F8001B1B
:1019400002284FF00300F5D9BFE700BF002003B025
:10195000BDE8F083411E0020B0EB116F1CBF0120D9
:1019600070474EF21002CEF2000251604EF6235143
:10197000CEF20001F0230B700721906011607047D8
:1019800010B5C0B10446C06F28B9002084F87800B3
:10199000204600F025F82420E0672068616A02688C
:1019A00022F00102026011B1204600F0D9FA20466F
:1019B00000F0FEFB10B1012010BD00BF2168486897
:1019C00020F490404860886820F02A008860086809
:1019D00040F0010220460A60BDE8104000F034BB30
:1019E00070B59CB0044600201B90CDE91900CDE9EC
:1019F000170002A85421FEF7FFFD206844F20041C1
:101A0000C4F20001884231D043F60001C4F2010162
:101A1000884262D10120029002A8FFF7A9F80028AD
:101A200018BFFEF7C7FE41F24C00C4F20200416944
:101A300041F480414161416901F480410191019982
:101A4000016841F001010160006800F001000190AF
:101A500001984FF4C0601790022018900020199050
:101A600003201A9007201B9032E000BF022402A836
:101A70000294FFF77DF8002818BFFEF79BFE41F2A5
:101A80004C00C4F20200C168002541F40031C1607D
:101A9000C168032601F4003101910199016841F008
:101AA00001010160006817A900F001000190019890
:101AB0000420CDE9170407201B904FF090401995A2
:101AC0001A96FEF77DFE4FF4004017A971C11B96D0
:101AD00017A94FF09040FEF773FE1CB070BD0000D8
:101AE0002DE9F04381B00446C06F202808D10029B9
:101AF0004FF0010018BF002A06D101B0BDE8F08305
:101B0000022001B0BDE8F0830020C4F88400212049
:101B10001D460E46E0671746FEF734FFA4F85070E6
:101B2000A4F85270A1688146B1F5805F02D12069A6
:101B3000002865D037460020B4F852202168002ADA
:101B400066D06A1C27D0002D52D08046C869000696
:101B50000AD4FEF717FFA0EB0900A84200F282802A
:101B600021680868F2E700BF17B117F8010B04E01D
:101B700038F8020B00276FF35F200885B4F8520095
:101B80000138A4F85200B4F852000028DED13FE03A
:101B9000CA69120609D4CA69120606D4CA691206AD
:101BA0005CBFCA695FEA0262F2D51FB117F8012B68
:101BB00005E000BF30F8022B00276FF35F220A8593
:101BC000B4F85220013AA4F85220B4F85220002A66
:101BD000E1D11DE030F8022B00276FF35F220A8568
:101BE000B4F85220013AA4F85220B4F852207AB145
:101BF000CA69120634D5002FECD017F8012BEEE796
:101C000000273046B4F852202168002A7FF499AFAB
:101C1000C86940061ED41DB3681C14D1C8694006AB
:101C200026D4C869400623D4C869400620D4C869B0
:101C300040064FF00000F1D50DE000BF20680168BC
:101C4000C069400614D4FEF79DFEA0EB0900A8422F
:101C5000F4D907E000202021E16701B0BDE8F0835E
:101C6000FEF790FE03202021E16701B0BDE8F0837C
:101C700000202021E16701B0BDE8F083FEE700000D
:101C8000FEE70000F0B581B041F20005C4F20205A4
:101C9000EA68920714D0EA68036802F003029A42E5
:101CA0004FF0010208D13BB1EA684368C2F3021267
:101CB00001329A422AD00122104601B0F0BD00BF85
:101CC0000268032A10D0022A06D0012A07D12B6805
:101CD0009B0710D403E000BF2B685B050BD40122E7
:101CE000104601B0F0BD00BF2B689B035CBF2B68A2
:101CF0005FEA4333F3D5EB6847686FF00F0623F0D4
:101D0000730306EB07173B431A43EA60064628684D
:101D10000F4620F080602860FEF734FE044600BFC6
:101D20002868000108D5FEF72DFE001B0228F7D910
:101D30000322104601B0F0BD2969B0683246012F78
:101D40004FEA002008D0BFB948F2FF03D268C0F2C2
:101D5000FF731940D2061BE048F2FF03CFF6FF13D2
:101D600003F1B463194012690023CFF6E07303EA6C
:101D70000252A2F500120BE048F2FF03CFF6FF1368
:101D8000526919404FF07E4303EA026202F17E423B
:101D9000084310432861286840F080602860FEF7FF
:101DA000F1FD04462868000108D4FEF7EBFD001B96
:101DB0000228F7D90322104601B0F0BDB0692969A5
:101DC000002208432861104601B0F0BD80B502F042
:101DD00081FE03F069FDBDE8804002F089BE00008D
:101DE00010B596B005A84421FEF706FC00244FF478
:101DF00000700494CDE90244CDE90044FEF756FE9C
:101E000020B1EFF3108072B6FEE700BFFEF79CFE34
:101E100041F29000C4F20200016821F01801016053
:101E200014206021059001200D9102210790CDE939
:101E30000B04CDE90F101190102012900720CDE96E
:101E4000130105A81591FFF78BF928B1EFF3108066
:101E500072B600BFFEE700BF0F2000900320019084
:101E60000020CDE90200049068460121FEF7C2FF80
:101E700020B1EFF3108072B6FEE700BFFEF76EFEF2
:101E800016B010BD41F20C00C4F2020050F80C1C58
:101E9000042211F008016FF00B0108BF88210958D6
:101EA00008BF0822D14046F2CC4201F00F01C0F633
:101EB000000252F8211050F8042CC2F38102DFE82E
:101EC00002F03303090F00BF42F20041C0F2F401F7
:101ED0002AE000BF41F20021C0F27A0124E000BFF5
:101EE0000368026803F00303C2F30212022B02F13B
:101EF000010207D0032B04BF41F20021C0F27A0196
:101F000004E000BF42F20041C0F2F4010368B1FBFB
:101F1000F2F1C3F3062203685143C3F34162022383
:101F200003EB4202B1FBF2F140F20802C2F20002FE
:101F3000116050F8040C46F2B443C0F30310C0F62D
:101F40000003185C21FA00F0106070474EF68850CC
:101F5000CEF20000016841F470010160704700009A
:101F6000416A0A070CD4CA0715D18A071ED44A074A
:101F700027D4CA0630D48A0639D44A0642D457E058
:101F80000268D0F834C0536823F4004343EA0C03DA
:101F90005360CA07E9D00268D0F828C0536823F418
:101FA000003343EA0C0353608A07E0D50268D0F897
:101FB0002CC0536823F4803343EA0C0353604A0770
:101FC000D7D50268D0F830C0536823F4802343EAA1
:101FD0000C035360CA06CED50268D0F838C09368A7
:101FE00023F4805343EA0C0393608A06C5D5026844
:101FF000D0F83CC0936823F4005343EA0C03936089
:102000004A0615D5D0F800C0036CDCF80420B3F5FF
:10201000801F22F4801242EA0302CCF8042007D188
:10202000DCF80420436C22F4C0021A43CCF80420EC
:10203000090658BF70470168806C4A6822F4002284
:102040001043486070470000B0B582B004460020DD
:10205000C4F88400FEF796FC216805460A6812075A
:1020600037D56FF07E4C20464FF4001100222B46EE
:10207000CDF800C000F09CF950B300BF206850E8D4
:10208000000F216820F0800041E80002DAB12068EA
:1020900050E8000F216820F0800041E8000292B172
:1020A000206850E8000F216820F0800041E800021D
:1020B0004AB1206850E8000F216820F0800041E814
:1020C0000002002ADAD1032020217C226AE000BF2E
:1020D0002168086840075DD56FF07E4C20464FF4BC
:1020E000800100222B46CDF800C000F061F90028E5
:1020F00050D000BF206850E8000F216820F4907095
:1021000041E80002BAB3206850E8000F216820F4CB
:10211000907041E8000272B3206850E8000F216817
:1021200020F4907041E800022AB3206850E8000FC4
:10213000216820F4907041E80002002ADAD11AE008
:10214000206850E8020F216820F0010041E80202F7
:10215000DAB1206850E8020F216820F0010041E860
:10216000020292B1206850E8020F216820F00100BD
:1021700041E802024AB1206850E8020F216820F0CD
:10218000010041E80202002ADAD103202021802246
:1021900008E000BF2020E067C4F88000002164222E
:1021A00000202166A150002184F8781002B0B0BD53
:1021B000B0B5054605F108041ECC0068194341EA94
:1021C0000403D5F81CE0046846F6F311CEF6FF715F
:1021D0002140194341EA0E010160416848F2000CB8
:1021E00021F4405111434160AA69C4F2000C6045DA
:1021F0001CBF296A0A43816821F43061114344F20B
:102200000042C4F200029042816017D060450DD0B8
:1022100043F60001C4F2010188424BD141F288012A
:10222000C4F202010B685EA212E000BF41F2880115
:10223000C4F2020109688B0A06E000BF41F288017E
:10224000C4F2020109688B0846F2FC52C0F6000293
:1022500003F0030152F82130604542F20040C0F221
:10226000F4002ED0BEF5004F12D1082B4FF0010123
:1022700000F29180DFE803F00656688F5E8F8F8F43
:10228000660000BFFEF7DCFE002840F05D807EE0C7
:10229000082B4FF0010100F27E80DFE803F00547D4
:1022A0006B7C4F7C7C7C6900FEF7CAFE002861D104
:1022B0006DE000BF1023604542F20040C0F2F40020
:1022C000D0D1082B4FF0010165D8DFE803F0056499
:1022D0000F64096464640D00FEF7B2FE30B956E085
:1022E000FEF7DAFE10B952E04FF400406A6802EBE4
:1022F000420188424FF001014DD3130398424AD85E
:10230000010E000210EB520041F100010023FEF724
:1023100067F84FF60052A0F54071C0F20F029142EB
:1023200033D337E0FEF7A2FE70B930E0FEF79EFE31
:1023300000BB2CE0FEF7B0FE30B928E0FEF7ACFEA3
:10234000C0B924E04FF4004069684A0802EB40003D
:10235000B0FBF1F04FF6EF72A0F11001914219D8E5
:102360004FF6F0710140C0F3420008440DE000BF99
:102370004FF4004069684FF6EF7200EB5100B0FB7C
:10238000F1F0A0F11001914204D82968C860002141
:1023900001E000BF012100220846AA66EA66B0BD3E
:1023A000010000000400000002000000080000001E
:1023B0002DE9F041804600681546C2690E4611407D
:1023C000891BB1FA81F149098D4223D1069C2CB3B6
:1023D000611C29D1C1693140891BB1FA81F14909D8
:1023E0008D4217D1C1693140891BB1FA81F1490988
:1023F0008D420FD1C1693140891BB1FA81F1490980
:102400008D4207D1C1693140891BB1FA81F1490977
:102410008D42DFD00020BDE8F08100BFFEF7B2FAA8
:102420000320BDE8F08100BF1F4607E0C0693040CF
:10243000801BB0FA80F040098542EBD1FEF7A2FA8A
:10244000C01BA04200F2B080D8F800000168490724
:10245000ECD5402EEAD0802EE8D0C169090700F102
:10246000A780C1690905E1D54FF400610162D8F880
:10247000000050E8000FD8F8001020F4907041E8F8
:102480000002002A43D0D8F8000050E8000FD8F826
:10249000001020F4907041E80002C2B3D8F80000A8
:1024A00050E8000FD8F8001020F4907041E80002C6
:1024B0006AB3D8F8000050E8000FD8F8001020F4F4
:1024C000907041E80002002AD1D120E0D8F8000045
:1024D00050E8020FD8F8001020F0010041E8020295
:1024E0000AB3D8F8000050E8020FD8F8001020F026
:1024F000010041E80202B2B1D8F8000050E8020F32
:10250000D8F8001020F0010041E802025AB1D8F8D2
:10251000000050E8020FD8F8001020F0010041E858
:102520000202002AD2D1D8F8600001282CD1D8F8B4
:10253000000050E8000FD8F8001020F0100041E82B
:1025400000020AB3D8F8000050E8000FD8F80010D5
:1025500020F0100041E80002B2B1D8F8000050E8C5
:10256000000FD8F8001020F0100041E800025AB126
:10257000D8F8000050E8000FD8F8001020F0100044
:1025800041E80002002AD2D120200021C8F88000B2
:10259000C8F86010C8F86810C8F88400032088F8EC
:1025A0007810BDE8F08100BF0320BDE8F08100BFD6
:1025B00008210162D8F8000050E8000FD8F8001098
:1025C00020F4907041E80002002A44D0D8F80000BE
:1025D00050E8000FD8F8001020F4907041E8000295
:1025E000CAB3D8F8000050E8000FD8F8001020F463
:1025F000907041E8000272B3D8F8000050E8000F74
:10260000D8F8001020F4907041E80002002AD1D1DF
:1026100021E000BFD8F8000050E8020FD8F8001001
:1026200020F0010041E802020AB3D8F8000050E8A7
:10263000020FD8F8001020F0010041E80202B2B108
:10264000D8F8000050E8020FD8F8001020F0010080
:1026500041E802025AB1D8F8000050E8020FD8F859
:10266000001020F0010041E80202002AD2D1D8F87F
:10267000600001282CD1D8F8000050E8000FD8F8ED
:10268000001020F0100041E800020AB3D8F8000062
:1026900050E8000FD8F8001020F0100041E80002C8
:1026A000B2B1D8F8000050E8000FD8F8001020F0C0
:1026B000100041E800025AB1D8F8000050E8000FBD
:1026C000D8F8001020F0100041E80002002AD2D112
:1026D0002020C8F8800000200821C8F86000C8F851
:1026E0006800C8F8841088F878000120BDE8F081FF
:1026F000FEE70000002804BF00207047C1B209B106
:1027000001200CE010F47F4102D0090A092006E004
:1027100010F47F0107BF010E1920090C112046F2A9
:10272000FC42C0F60002515C08447047B0B540F26C
:10273000B800C2F200000468FDF7AEFD0546204671
:1027400002F07EFD04F1440003F0BCF9042084F89B
:102750003400204602F07AFF2846FDF7A1FDBDE8CF
:10276000B04002F05BBC0000B0B50446FDF794FD3C
:10277000224605466FF00100A16952F8143F20631C
:10278000204659600B60A261126002F019FD2846D4
:10279000FDF786FDBDE8B04002F040BC80B502A068
:1027A00002F0B4F9002080BD1B5B324A1B5B48007D
:1027B00010B5022815D14C6846F29871C0F6000198
:1027C0002046FDF741FFE8B146F2B171C0F60001C5
:1027D0002046FDF739FFC8B110A12046FDF734FFB0
:1027E000C0B10FA002F092F913A002F08FF915A06A
:1027F00002F08CF91AA002F089F920A002F086F903
:10280000002010BD00F0E0FB002010BD00F01CFD1A
:10281000002010BD00F098FA002010BD73656D0017
:1028200055736167653A206C697374205B6F7074CF
:10283000696F6E735D0A00005B6F7074696F6E7311
:102840005D3A0A0020202020746872656164202DA2
:10285000206C69737420746872656164730A000087
:102860002020202074696D6572202D206C6973749E
:102870002074696D6572730A00000000202020201A
:1028800073656D202D206C6973742073656D6170A4
:10289000686F7265730A0000B0B584B040F2A80595
:1028A00046F61C2040F25412C2F20005C0F60000A9
:1028B00046F67C21C2F20002C0F6000185E807005E
:1028C00040F2C82215204FF48061C2F20002CDE927
:1028D0000021029040F2502042F63D120A24C2F23A
:1028E000000012A1C0F600020023039402F014FFBE
:1028F000AA6804460FA110460022002302F0CAFC79
:10290000A86890F8211041F0020180F821101CB154
:10291000002004B0B0BD00BF40F25020C2F2000061
:1029200002F08CFF002004B0B0BD00BF7473686576
:102930006C6C0000736872780000000040F2A80A16
:10294000C2F2000ADAF8080040F2CC1490F8211024
:1029500047F26D3741F0010280F821208807C2F26A
:102960000004C2F268074FF0000001D4207006E0B6
:10297000207120462760FDF7ABFD3E212152204605
:1029800002F0C4F846F2DE764FF001084FF0000B7B
:10299000C0F6000602E000BF80F8208001F006FECD
:1029A0008146DAF80800B9F11B0FF5D090F8201035
:1029B00002290BD0012940F07780B9F15B0F40F07C
:1029C0007180022180F82010E8E700BFA9F14101E1
:1029D000022980F820B0E1D3B9F1440F00F28C80D5
:1029E000DFE819F0460091009100910091009100FC
:1029F000910091009A00F800700091009100700021
:102A0000910091009100910091009100910091003E
:102A1000910091009100910091009100910091002E
:102A2000910091009100910091009100910091001E
:102A3000910091009100910091009100910091000E
:102A400091009100910091009100910091009100FE
:102A500091009100910091009100910091009100EE
:102A6000910091009100910091004800960100BFF3
:102A700094E700BFB0F87610B0F874209142BFF42C
:102A80008DAF084490F8221046F2E570C0F60000C1
:102A900002F03CF8DAF80800B0F876100131A0F83E
:102AA00076107BE780F820B0B9F10D0F24D8DFE86D
:102AB00009F0072A2A2A2A2A2A2A3391092A2A09C6
:102AC0006CE700BF90F82110C90707D046F6E80070
:102AD000C0F6000002F01AF8DAF80800B0F8741036
:102AE000223001F02DF8DAF8080090F82100800774
:102AF00058D484F800B05DE0B9F17F0F0CD0B9F183
:102B0000FF0F3FF44BAFB0F87420502AC0F0848020
:102B10000022A0F87420B3E0B0F87620002A3FF439
:102B20003DAFB0F87430A146591E8DB2A0F87410B4
:102B3000511E3C468FB2BD42A0F8761040F2C280D2
:102B400000F1220717FA81F0B9189A1A92B202F02E
:102B5000F5F8DAF80800B0F87410084480F822B0EC
:102B6000DAF80800B0F87610084400F1220171A0EC
:102B700001F0CCFFDAF808102746B1F87600B1F87A
:102B800074104C4688423FF609AF451E304601F0AE
:102B9000BDFFDAF808000135B0F874008542F5D3BE
:102BA000FCE600BF204684F804B02760FDF790FCE7
:102BB0003E212152204601F0A9FFDAF80800002149
:102BC0002230512202F036F9DAF80800C0F874B069
:102BD000E4E600BFB0F8761051B10025304601F0B0
:102BE00095FFDAF808000135B0F876108D42F5D37C
:102BF00000F1220546F6E800C0F6000001F086FF6D
:102C0000284600F0EBFEDAF8080090F82100800773
:102C100066D484F800B06BE0B0F876309A422FD9D1
:102C2000C11801F123002231D21A02F087F8DAF834
:102C30000800B0F87610084480F82290DAF808000E
:102C400090F82110C90709D0B0F87610084400F1B7
:102C500022013CA001F05AFFDAF80800B0F87650E3
:102C6000B0F874108D421DD2304601F04FFFDAF8F3
:102C700008000135B0F874108D42F5D312E000BFA2
:102C8000104480F82290DAF8080090F82110C90763
:102C900008D046F2E570C0F60000494601F036FF64
:102CA000DAF80800B0F87410B0F876200131A0F816
:102CB000741089B201325029A0F8762028BFC0F8DC
:102CC00074B06BE61AA001F021FFDAF8080027467D
:102CD000B0F874104C46084480F822B05EE600BF9D
:102CE000204684F804B02760FDF7F2FB3E21215214
:102CF00012A021462A4601F009FFDAF8085005F132
:102D00002200FDF7E5FBA5F87400A5F8760045E67E
:102D1000B0F8760000283FF441AE304601F0F6FEF0
:102D2000DAF80800B0F876100139A0F8761035E628
:102D3000082008000825732020080000257325734B
:102D400000000000257300002DE9F04F8DB0022037
:102D500002F00AF900F104087DA084A2082101F024
:102D6000D5FE46F29674C0F60004204601F0CEFE71
:102D7000204601F0CBFE204601F0C8FE204601F0BF
:102D8000C5FE204601F0C2FE204601F0BFFE2046EF
:102D900001F0BCFE204601F0B9FE77A001F0B6FEBE
:102DA00000250DF1140B7EA77FA4CDF80C8005E063
:102DB000049DDDF80C80002D00F0C6802E46002D0D
:102DC00008BF4646FDF768FA35B115F8041C01F056
:102DD0007F01022940F0B6803168414500F0B280A1
:102DE0000A68059142451DD01168069241451DD0E3
:102DF0000A68079142451DD01168089241451DD0CF
:102E00000A68099142451DD011680A9241451DD0BA
:102E10000A680B9142451DD04FF0080804920C92AD
:102E20001CE000BF4FF0010816E000BF4FF00208A1
:102E300012E000BF4FF003080EE000BF4FF004089F
:102E40000AE000BF4FF0050806E000BF4FF006089B
:102E500002E000BF4FF0070800210491FDF720FABF
:102E60004FF0000907E000BF50A001F04FFE09F14C
:102E70000109C1459CD05BF829A0FDF70DFA1AF8AD
:102E8000041C01F07F05FDF70BFA022DEFD1AAF12A
:102E90000C035AF8080F0025BAF80860504511D005
:102EA000504600BF0068504521D0006850451BD0F7
:102EB000006850451AD0006804355045F2D1013DF4
:102EC00015E000BF504600BF0068504531D0006893
:102ED00050452BD0006850452AD000680435504535
:102EE000F2D1013D25E000BF013500E0023528A008
:102EF00008210822CDE9006501F008FEDAF800504B
:102F0000554504D1B0E700BF50450546ACD0A5F10A
:102F100014023846082101F0F9FD28685045F3D025
:102F2000204601F0F3FD2868EEE700BF013500E020
:102F300002351FA008210822CDE9006501F0E6FD59
:102F400095E700BFFDF7ACF900200DB000F038B8F0
:102F5000252D2A2E73207620202073757370656EC0
:102F600064207468726561640A00000073656D61B5
:102F700070686F7265000000202D2D2D202D2D2DE5
:102F80002D2D2D2D2D2D2D2D2D2D2D0A0000000048
:102F9000252D2A2E2A7320253033642025643A00FB
:102FA000252E2A73000000002F0000000A000000F8
:102FB000252D2A2E2A7320253033642025640A000B
:102FC00030BCBDE8C08F00002DE9F04FABB0012050
:102FD00001F0CAFF051D46F2FD6046F29872C0F688
:102FE0000000C0F60002082101F090FD46F2967440
:102FF000C0F60004204601F089FD204601F086FD60
:10300000204601F083FD204601F080FD204601F0BE
:103010007DFD204601F07AFD204601F077FD204637
:1030200001F074FD64A001F071FD00260DF18C0B20
:10303000039504E0049E039D002E00F0B980344601
:10304000002E08BF2C46FDF727F936B116F8041CF0
:1030500001F07F01012940F0A9802168A94200F018
:10306000A5800A682391AA421CD011682492A94223
:103070001CD00A682591AA421CD011682692A94248
:103080001CD00A682791AA421CD011682892A94234
:103090001CD00A682991AA421CD04FF0080804925B
:1030A0002A921BE04FF0010816E000BF4FF0020823
:1030B00012E000BF4FF003080EE000BF4FF004081D
:1030C0000AE000BF4FF0050806E000BF4FF0060819
:1030D00002E000BF4FF0070800210491FDF7E0F87F
:1030E0004FF0000906E000BFFDF7DAF809F1010929
:1030F000C1459FD05BF82950FDF7CEF815F8041CA8
:1031000001F07F010129EFD1A5F10C07044605A8C4
:103110003946782201F01AFD2046FDF7C1F895F8EE
:10312000296035A0082108223B46009601F0EEFCFC
:1031300095F8280000F00700042804D831A151F8C0
:10314000200001F0E3FCE9690A4600BF107823285B
:103150000FD15078232809D19078232808D1D0782E
:1031600004322328F2D0013A03E000BF013200E02C
:103170000232D5E908402B696618891A2144642275
:10318000D5F834A05143B1FBF4F7F51A02F008F971
:10319000064621A0294622463B46CDE900A601F07D
:1031A000B5FC09F10109C145A4D143E7FDF778F861
:1031B00000202BB000F044B8202D2D2D20202D2DE7
:1031C0002D2D2D2D2D202D2D2D2D2D2D2D2D2D2D3C
:1031D000202D2D2D2D2D2D2D2D2D2D20202D2D2D46
:1031E0002D2D2D20202D2D2D2D2D2D2D2D2D2D2036
:1031F0002D2D2D0A00000000252D2A2E2A732025B2
:1032000033642000586700086A6700089F67000859
:10321000A8670008616700082030782530387820DA
:10322000307825303878202020202530326425253C
:103230002020203078253038782025730A000000BF
:1032400030BCBDE8C08F00002DE9F04F8FB00A20E0
:1032500001F08AFE46F2B17200F1040B0FF2C45085
:10326000C0F60002082101F051FC46F29674C0F647
:103270000004204601F04AFC204601F047FC2046AD
:1032800001F044FC204601F041FC204601F03EFCE8
:10329000204601F03BFC204601F038FC204601F0BE
:1032A00035FC0FF2B45001F031FC4FF0000833E070
:1032B0003546A7F10C09FCF7F3FFD7E9066446F29F
:1032C0008070C0F60000082108224B46CDE900645A
:1032D00001F01CFC17F8030C46F27371C00746F2AC
:1032E0004B70C0F60000C0F6000108BF084601F0B0
:1032F0000DFC17F8030C800759BF46F24170C0F669
:10330000000046F2F360C0F6000001F0FFFB2E461D
:10331000B8F1000F00F07C824446B8F1000F08BFFE
:103320005C46FCF7B9FFB8F1000F06D018F8041C92
:1033300001F07F010A2940F06982D4F80090D94554
:1033400000F06482D9F800A0DA4523D0DAF8001042
:10335000594525D00A685A4500F0328113685B450B
:1033600000F038811F685F4500F084813E685E454B
:1033700000F0D281D6F80080D84500F0DD8100252C
:10338000CDE9046756460E95CDE906320891CDF891
:103390000C800AE000214FF000080E9106E000BF0B
:1033A00001214FF000080E91564600210D910C911D
:1033B0000B910A910991FCF773FFFCF76DFF19F867
:1033C000041C01F07F010A2932D13546A9F10C070E
:1033D000FCF766FFD9E9066446F28070C0F600008B
:1033E000082108223B46CDE9006401F08FFB19F863
:1033F000030C46F27371C00746F24B70C0F6000032
:10340000C0F6000108BF084601F080FB19F8030C64
:10341000800759BF46F24170C0F6000046F2F360E3
:10342000C0F6000001F072FB2E46DA4505D16FE7C9
:10343000FCF736FFDA453FF46BAFFCF72DFF16F8CB
:10344000041C01F07F010A2932D1A6F10C07FCF718
:1034500027FFD6E9065446F28070C0F60000082126
:1034600008223B46CDE9005401F050FB16F8030C4E
:1034700046F27371C00746F24B70C0F60000C0F60A
:10348000000108BF084601F041FB16F8030C800755
:1034900059BF46F24170C0F6000046F2F360C0F634
:1034A000000001F033FB0E9800287FF431AF05E0F7
:1034B000FCF7F6FE0E9800287FF42AAFFCF7ECFE2E
:1034C000089D15F8041C01F07F010A2934D1B1468A
:1034D000A5F10C07FCF7E4FED5E9066446F280701E
:1034E000C0F60000082108223B46CDE9006401F047
:1034F0000DFB15F8030C46F27371C00746F24B70D2
:10350000C0F60000C0F6000108BF084601F0FEFA50
:1035100015F8030C800759BF46F24170C0F6000051
:1035200046F2F360C0F6000001F0F0FA4E460D9846
:1035300000287FF4EDAE05E0FCF7B2FE0D98002800
:103540007FF4E6AEFCF7A8FE079F17F8041C01F015
:103550007F010A294AD13546A7F10C09FCF7A0FEE4
:10356000D7E9066446F28070C0F600000821082200
:103570004B46CDE9006401F0C9FA17F8030C46F296
:103580007371C00746F24B70C0F60000C0F6000130
:1035900008BF084601F0BAFA17F8030C800759BFB4
:1035A00046F24170C0F6000046F2F360C0F600003B
:1035B00001F0ACFA2E460C9800287FF4A9AE1BE06F
:1035C0000122089100210D924FF0000856460E91FD
:1035D000EDE600BF0123CDE9072100210C934FF058
:1035E00000085646CDE90D11E2E600BFFCF758FE93
:1035F0000C9800287FF48CAEFCF74EFE069F17F85F
:10360000041C01F07F010A2942D13546A7F10C09BB
:10361000FCF746FED7E9066446F28070C0F600006B
:10362000082108224B46CDE9006401F06FFA17F833
:10363000030C46F27371C00746F24B70C0F60000EF
:10364000C0F6000108BF084601F060FA17F8030C45
:10365000800759BF46F24170C0F6000046F2F360A1
:10366000C0F6000001F052FA2E460B9800287FF4B5
:103670004FAE13E00127089100210B974FF000088F
:10368000CDE9063256460E91CDE90C1191E600BF08
:10369000FCF706FE0B9800287FF43AAEFCF7FCFD21
:1036A000059F17F8041C01F07F010A2956D1354601
:1036B000A7F10C09FCF7F4FDD7E9066446F2807027
:1036C000C0F60000082108224B46CDE9006401F055
:1036D0001DFA17F8030C46F27371C00746F24B70DF
:1036E000C0F60000C0F6000108BF084601F00EFA5F
:1036F00017F8030C800759BF46F24170C0F600006E
:1037000046F2F360C0F6000001F000FA2E460A9877
:1037100000287FF4FDAD27E00126CDE90721002137
:103720000A964FF00008CDE905735646CDE90D1114
:10373000CDE90B113EE600BF012508910021099556
:103740004FF00008CDE90467CDE9063256460E91E8
:10375000CDE90C11CDE90A112DE600BFFCF7A0FD63
:103760000A9800287FF4D4ADFCF796FD049F17F863
:10377000041C01F07F010A2934D13546A7F10C0958
:10378000FCF78EFDD7E9066446F28070C0F60000B3
:10379000082108224B46CDE9006401F0B7F917F87B
:1037A000030C46F27371C00746F24B70C0F600007E
:1037B000C0F6000108BF084601F0A8F917F8030C8D
:1037C000800759BF46F24170C0F6000046F2F36030
:1037D000C0F6000001F09AF92E46099800287FF4FF
:1037E00097AD05E0FCF75CFD099800287FF490ADEB
:1037F000FCF752FD039F17F8041C01F07F010A2912
:103800003FF456ADFCF74CFD82E500BFFCF748FDE8
:1038100002F044F801461CA001F078F900200FB036
:1038200000F03EB8252D2A2E732020706572696F36
:1038300064696320202074696D656F757420202091
:103840002061637469766174656420202020206D96
:103850006F64650A00000000202D2D2D2D2D2D2DCB
:103860002D2D2D202D2D2D2D2D2D2D2D2D2D202DA2
:103870002D2D2D2D2D2D2D2D2D2D202D2D2D2D2D85
:103880002D2D2D2D0A00000063757272656E742057
:103890007469636B3A3078253038780A000000008C
:1038A00030BCBDE8C08F000086B044F200453CA0AB
:1038B000C4F2000501F02AF9FDF76AF8FEF790FA64
:1038C000002641F24C000596CDE90366CDE901667C
:1038D000C4F20200016840F2004441F004010160BA
:1038E0000168C4F6000401F0040100910099016828
:1038F000002241F0010101600168082701F0010187
:1039000000910099016841F00201016000680821FE
:1039100000F00200009000982046FDF72DF80120ED
:10392000CDE9020601A9204601970496FCF748FF5D
:1039300040F25070C2F200004FF4E1370C24C0E9AD
:103940000057C0E90266C0E90464C0E90666C0E940
:103950000866FEF715F828B1EFF3108072B600BFC5
:10396000FEE700BF40F2C86005F57441C2F20000F6
:10397000C0E90017C0E90266C0E90464C0E9066650
:10398000C0E90866FDF7FCFF20B1EFF3108072B6C6
:10399000FEE700BF4FF47A7001F004FFFAE700BFC2
:1039A0000A48656C6C6F0A00B0B546F6182446F6F6
:1039B0001020C0F60004C0F60000A04209D246F66E
:1039C0001025C0F6000500BF55F8040B8047A5423E
:1039D000FAD3BDE8B040FFF767BF00002DE9F04F14
:1039E00081B083460078002860D040F2A80040F201
:1039F000AC0AC2F20000C2F2000A0568DAF8004020
:103A0000A54280F089804FF000090FF214180026BB
:103A10000FE000BF481C00BF801B4845B8BF81466F
:103A20004046394601F072F8DAF800400C35A542FC
:103A300068D22F685846FCF74BFD02465846394677
:103A4000FCF765FD0028F1D1B9F1000F04D0317801
:103A5000304651B9E0E700BF3846FCF739FD8146F2
:103A60003E46317830460029D6D000203A5C91425B
:103A700015D131184B78002BCCD03A185478A3428A
:103A8000C8D18B7873B19478A3420BD1CB785BB15A
:103A9000D278934208D1097904300029E6D1304424
:103AA000BAE700BF881CB7E7C81CB5E746F2B77095
:103AB000C0F6000001F02AF840F2A80040F2AC0580
:103AC000C2F20000C2F2000500682968884210D2E4
:103AD00046F2D274A0F10C06C0F6000456F80C1F92
:103AE0002046726801F012F8286806F10C01814244
:103AF000F4D346F6E800C0F6000001B000F012B8BA
:103B000001F004B846B1584631464A4601B000F0CB
:103B10000EB801F083BC00BF01B000F00DB800BFCB
:103B200025730A0030BCBDE8C04FFFF7E9BF30BCC9
:103B3000BDE8C04FFFF7EDBF30BCBDE8C08F00004F
:103B4000002904BF002070472DE9F04F8DB0CF1E33
:103B50008E1E4D1E002302E00433994220D0C25C29
:103B6000202A01D0092A1FD19D4219D0C418627899
:103B7000202A01D0092A1DD19E4211D0A278202AE4
:103B800001D0092A1CD19F420AD0E278202AE3D032
:103B9000092AE1D0C81AA0F1030804F1030A14E0CD
:103BA00000200DB000F0B4B9A1EB030800EB030A4C
:103BB0000BE000BFD84300EB010804F1010A04E068
:103BC000C81AA0F1020804F1020AA8F10300C8F122
:103BD000000700250497D1B2092932D0202930D01E
:103BE0007A191DD00AEB05014B78092B1CD0202B2C
:103BF0001AD0531C14D08B78092B19D0202B17D036
:103C000002321DD0CA78092A16D0202A14D0A84220
:103C100006D00A790435D1B20929DFD111E000BFFD
:103C200045468DB92CE100BF01356DB928E100BFD3
:103C300002354DB924E100BF03352DB920E100BFA5
:103C40004546002D00F01C8140F2A800C2F20000A1
:103C5000076840F2AC00C2F20000046801E000BF57
:103C60000C37A74280F00C813E68514630462A4608
:103C7000FCF74DFC0028F3D1705D0028F0D1B86846
:103C80000028019000F0FC8005A80021202201F00E
:103C9000D1F8C8F10100029000204FF0000ED34689
:103CA00003904246C64588BF7246AEEB020C0CF14B
:103CB000010400255B4676461BF80500202801D04C
:103CC000092835D11CEB05090BEB050128D04878F4
:103CD000002720280BF8057001D009282AD1671980
:103CE00020D08878002720284F7001D0092825D1BE
:103CF00019F1020718D0C878002720288F7001D04A
:103D000009281FD119F1030710D00020C87004330F
:103D1000043604351BF805002028D1D1D2E700BFB6
:103D20000B4613E04B1C11E08B1C0FE003330DE03E
:103D300032460BE00133721C08E000BF0233B21CB4
:103D400004E000BFCB1C0EEB0501CA1C039C0499C8
:103D5000082C77D2424580F08B80222804F10100A4
:103D600020D103F1010B05A941F824B05D78511C65
:103D700004E000BF1BF8015F0A46013141454FF0E6
:103D8000000638BF0126222D3CD041453AD25C2D99
:103D9000F0D15B4613F8017F222F04BF9B46911C94
:103DA000E8E700BF05AF47F824308C1802990026D9
:103DB00001EB020C995D09291ED020291CD0A11904
:103DC00058D09D196F78092F24D0202F22D01CEBBA
:103DD00006074FD0AF78092F22D0202F20D08F1C7C
:103DE00048D0EF78092F21D0202F1FD0033141D0A8
:103DF0000436995D0929E0D103EB060B02EB060EB0
:103E000019E000BFB6B300210BF8011B02F1020E4E
:103E100013E000BF911905F1010B01F1010E0AE059
:103E2000911905F1020B01F1020E04E0911905F15F
:103E3000030B01F1030EC6451CD2C6450390FFF4E7
:103E400030AF17E023A000F061FE002529A705AEE2
:103E500056F82510384600F059FE0135AC42F7D12E
:103E600046F6E800C0F6000000F050FE204601E0F3
:103E700020462CB1019A05A990470DB000F048B832
:103E800000211AF8010040F0200020280AEB010070
:103E900015D0427842F02002202A0BD0827842F0DE
:103EA0002002202A08D0C27842F02002202A05D021
:103EB0000431E6E7013002E0023000E00330002187
:103EC00001700DA0514600F021FE4FF0FF300DB003
:103ED00000F01EB8546F6F206D616E7920617267BB
:103EE000732021205765206F6E6C79205573653AD9
:103EF0000A0000002573200025733A20636F6D6D62
:103F0000616E64206E6F7420666F756E642E0A0099
:103F100030BCBDE8C08F000070B546F2B770C0F687
:103F2000000000F0F3FD40F2A80040F2AC05C2F240
:103F30000000C2F2000500682968884211D246F2EA
:103F4000D274A0F10C06C0F6000400BF56F80C1F96
:103F50002046726800F0DAFD286806F10C01814203
:103F6000F4D346F6E800C0F6000000F0CFFD0020D4
:103F700070BD00002DE9F04F87B0DDE911890FF227
:103F800048565FEA49670FF2545758BF37465FEA11
:103F9000C96648BF29F001095FEAC9764FF0300EC3
:103FA00008BF4FF0200E5FEA897667D4002601969D
:103FB0000126029600260096002A00F09E804FF00F
:103FC000000B0A2B71D149F69A160DF10C08C1F6B7
:103FD000991600BF4CF6CD43CCF6CC43A2FB03347C
:103FE000E30803EB8304A2EB44043C5D0A2A08F8CF
:103FF0000B40C0F08980A3FB064505EB8505A3EBCC
:104000004503FB5C08EB0B0C642A8CF80130C0F014
:10401000858048F21F53C5F2EB13A2FB03346309FA
:10402000A3FB064505EB8504A3EB4403FB5CB2F55B
:104030007A7F8CF8023077D344F6D353C1F262030F
:10404000A2FB0334A309A3FB064541F25974CDF248
:10405000B714A2FB044A05EB8504A3EB440342F228
:104060001074FB5CA2424FEA5A320BF1040B8CF83D
:104070000330AFD2DDF844805AE000BFB2F1FF3F19
:1040800008DD5FEA49762FD45FEA09768ED52026CF
:104090002BE000BF01260196002602962D265242F3
:1040A00000964FF0000B0A2B8DD003AE02F00F03E9
:1040B000FD5C130906F80B5028D003F00F03FC5CDD
:1040C00006EB0B05130A6C7024D003F00F03FC5CA5
:1040D000130BAC702AD003F00F03FB5C120C0BF136
:1040E000040BEB70E2D123E02B260096002602960B
:1040F00001260196002A7FF462AF30228DF80C2051
:104100004FF0010B14E000BFDDF844800BF1010B10
:104110000EE000BF0BF1020B0AE000BFDDF84480A7
:104120000BF1020B04E000BFDDF844800BF1030B40
:10413000109AC345C246C8BFDA4619F0110FA2EB68
:104140000A0C67D00546029830B98D423CBF0098F2
:104150002870ACF1010C01355FEAC96034D4BCF1C0
:104160000107C0F293801CF0030600F099808D4295
:1041700038BF85F800E0012E05F1010040F09A807B
:10418000ACF102070546BCF1040FC0F08D80381D6C
:104190008D4205F1010238BF85F800E08A4238BF40
:1041A00082F800E0AA1C8A4238BF82F800E0EA1CCC
:1041B0008A42A0F1040038BF82F800E0032805F12C
:1041C0000405E5DC4FF0FF3C2846D84562DDAAEB4C
:1041D0000B026FEA0B0312F003040AEB03025BD03D
:1041E0008842AAF101073CBF30230370012C00F183
:1041F000010E0AD08E45AAF102073CBF30238EF88B
:104200000030022C00F1020E6ED17046032A76D2E5
:1042100091E000BF0022BCF1000FC8BF0122019B4A
:104220001A40ACEB0207B7F1010CFFF68BAF17F0A9
:1042300003064FD088423CBF20220270012E00F1BD
:10424000010540F01781A7F1020C2846042F43D343
:104250000CF10402202700BF884200F1010338BF9F
:1042600007708B4238BF1F70831C8B4238BF1F7092
:10427000C31C8B42A2F1040238BF1F70032A00F155
:104280000400E9DC4FF0FF3C5CE700BF2846BC4679
:10429000D8459CDC86464EE05746032A2FD24AE09A
:1042A000BCF1040FBFF473AF4FF0FF3CD8453FF7AC
:1042B0008EAFEFE7884238BF80F800E0022E05F1AC
:1042C000020040F0E780ACF103070546BCF1040FA3
:1042D000EAD35CE7042FBBD24FF0FF3C02980028E2
:1042E0003FF433AF38E700BF03308E45AAF1030730
:1042F0003CBF30238EF800308646032A1BD3302281
:10430000864600BF8E450EF1010038BF8EF80020B2
:10431000884238BF02700EF10200884238BF027036
:104320000EF103008842A7F1040738BF0270BB45B5
:104330000EF1040EE6DBB8F1000F44D003AACBF176
:104340000000023A002704E00437C319ABF1040B64
:1043500060D00EEB07048C4203D202EB0B035B78B8
:104360002370BBF1020F04F101031DDB8B423CBF44
:1043700012F80B501D70C319023304F102061BD052
:104380008E4204D202EB0B0313F8013C3370BBF1F5
:10439000040F04F1030515D38D42D5D202EB0B03B4
:1043A00013F8023C2B70CFE79E46BCF1010F0DDAEB
:1043B000704607B000F09CB8B646BCF1010F05DAB4
:1043C000F6E700BFAE46BCF1010FF1DB1CF00307BE
:1043D0001AD08E453CBF20208EF80000ACF10102BF
:1043E000012F0EF1010009D08842ACF102023CBF5E
:1043F00020230370022F0EF1020011D18646BCF17A
:10440000040F19D233E000BF6246BCF1040F2ED373
:1044100012E000BFBE44BCF1010FD7DAC8E700BF0D
:104420000EF1030E8842ACF103023CBF202303705F
:104430007046BCF1040F1AD3013A2027704600BF22
:10444000884200F1010338BF07708B4238BF1F70EC
:10445000831C8B4238BF1F70C31C8B42A2F1040225
:1044600038BF1F7012F1020F00F10400E8D307B04B
:1044700000F03EB88D423CBF20222A70022E00F18F
:10448000020515D1A7F1030C2846042FFFF424AF31
:10449000DEE600BF0335884238BF80F800E0ACF1AB
:1044A00004072846BCF1040FBFF471AEFCE600BF60
:1044B00003308D423CBF20222A70A7F1040C054630
:1044C000042FBFF4C5AE07E7303132333435363709
:1044D0003839616263646566000000003031323350
:1044E00034353637383941424344454600000000F0
:1044F00030BCBDE8C08F000000F09EB8B0B546F6F5
:10450000102446F60820C0F60004C0F60000A042C1
:1045100028BFB0BD051F00BF55F8040F8047281DF8
:10452000A042F9D3B0BD000080B5FBF7B5FE40F264
:10453000B401C2F200014A8801324A80BDE88040DD
:10454000FBF7AEBE10B5FBF7A7FE40F2B404C2F213
:104550000004618801390AB2002A618004DDBDE8E7
:104560001040FBF79DBE00BF00216180FBF798FE65
:104570006068002808BF10BDBDE8104000F04EBDC7
:1045800080B5FCF705FAFDF72BFCFDF77BFCFCF78B
:1045900051FD44F6D351C1F26201A0FB010188092B
:1045A000FDF7D8F9BDE88040FFF7A8BF40F2CC0086
:1045B000C2F200000068C169890609D480B50A20EA
:1045C00001F0F0F8FF20BDE88040C0B2704700BFA6
:1045D000808CC0B270470000F0B581B004460D2059
:1045E0008DF8030040F2CC00C2F20000002180F8F8
:1045F0007810204600F0FAFEE0B140F2CC06054605
:10460000C2F200060DF103070AE000BF3046214662
:1046100001220123FDF764FA013D04F1010409D0F0
:1046200020780A28F2D13046394601220123FDF7CD
:1046300057FAEBE701B0F0BD4EF60C500421CEF274
:104640000000C0F2FA5101607047000010B540F65A
:10465000C841C2F200010968044629B104F12800EA
:104660008847002808BF10BD616C46F6DD00C0F623
:10467000000000F04BFAA16A46F69C00C0F600006C
:1046800000F044FAE16A46F6A900C0F6000000F026
:104690003DFA216B46F6B600C0F6000000F036FA8F
:1046A000616B46F6C300C0F6000000F02FFAA16867
:1046B00046F6D000C0F6000000F028FAE168CAA073
:1046C00000F024FA2169CCA000F020FA6169CEA0A4
:1046D00000F01CFAA169D0A000F018FAE169D2A09C
:1046E00000F014FA216AD4A000F010FA616AD6A092
:1046F00000F00CFAA16BD8A000F008FAE16BDAA088
:1047000000F004FA216CDCA000F000FA20784007E9
:104710000AD446F2E870C0F6000000F0F7F92078FD
:10472000C0060DD512E000BF01F044F8014646F680
:104730000200C0F6000000F0E9F92078C00605D4B8
:1047400046F61F00C0F6000000F0E0F94EF62954CE
:10475000CEF20004D4F80300800705D546F67A00AF
:10476000C0F6000000F0D2F9D4F80300400040F198
:10477000F980207830B346F64E00C0F6000000F015
:10478000C5F9217846F66110C0F6000000F0BEF9C8
:104790002078C00746D1207880074CD42078400785
:1047A00052D42078000758D42078C0065ED494F9FB
:1047B0000000B0F1FF3F61DD46F6E800C0F6000002
:1047C00000F0A4F914F8010C002800F0968046F6D9
:1047D0002D00C0F6000000F099F914F8011C46F60F
:1047E0007710C0F6000000F091F914F8010CC00732
:1047F00052D114F8010C800758D414F8010C0007AA
:104800005ED414F8010CC00664D414F9010CB0F1A4
:10481000FF3F6ADD46F6E800C0F6000000F076F9DA
:104820006BE000BF46F64C10C0F6000000F06EF9D9
:1048300020788007B2D546F64110C0F6000000F09F
:1048400065F920784007ACD546F63F10C0F6000069
:1048500000F05CF920780007A6D546F63510C0F6C2
:10486000000000F053F92078C006A0D586A000F023
:104870004DF994F90000B0F1FF3F9DDCD4F80F1022
:1048800046F65A00C0F6000000F040F914F8010C9A
:1048900000289CD131E000BF46F61010C0F60000A1
:1048A00000F034F914F8010C8007A6D546F606107E
:1048B000C0F6000000F02AF914F8010C0007A0D59A
:1048C00046F63410C0F6000000F020F914F8010C90
:1048D000C0069AD546F62B10C0F6000000F016F977
:1048E00014F9010CB0F1FF3F94DCD4F80B1046F63C
:1048F0006A00C0F6000000F009F9B4F8010088B3BE
:1049000046F64000C0F6000000F000F9B4F80110CF
:1049100046F68D10C0F6000000F0F8F8B4F801007B
:10492000C0072DD1B4F80100800733D4B4F80100DA
:10493000400739D4B4F8010000073FD4B4F80100AF
:10494000C00545D4B4F80100800505D546F61A1017
:10495000C0F6000000F0DAF846F6E800C0F6000005
:1049600000F0D4F8D4F80300B0F1FF3F06DC46F6BF
:104970008F00C0F6000000F0C9F800BFFEE700BFDE
:1049800046F65510C0F6000000F0C0F8B4F801007B
:104990008007CBD546F6FC00C0F6000000F0B6F864
:1049A000B4F801004007C5D546F6EA00C0F600009D
:1049B00000F0ACF8B4F801000007BFD546F62510AA
:1049C000C0F6000000F0A2F8B4F80100C005B9D5A7
:1049D00046F6F100C0F6000000F098F8B4F80100C7
:1049E0008005B3D4B8E700BF7230353A203078255F
:1049F0003038780A000000007230363A20307825CE
:104A00003038780A000000007230373A20307825BC
:104A10003038780A000000007230383A20307825AB
:104A20003038780A000000007230393A203078259A
:104A30003038780A000000007231303A2030782592
:104A40003038780A000000007231313A2030782581
:104A50003038780A000000007231323A2030782570
:104A60003038780A00000000206C723A2030782537
:104A70003038780A000000002070633A2030782532
:104A80003038780A0000000053544B455252200041
:104A900080B5043222F007024FF0000C4BF6EF6EA7
:104AA00042F844CDCDF6AD6EC2E901EEC2E903EEA7
:104AB000C2E905EEC2E907EE4FF0807ED0631046F2
:104AC000C2E9091CC2E90BCCC2E90DC3C2F840E03F
:104AD00080BD000080B5FBF7DFFB40F6D041C2F29D
:104AE00000010A7801320A70BDE88040FBF7D8BBAC
:104AF00080B5FBF7D1FB40F6D041C2F200010A7845
:104B0000013A0A70BDE88040FBF7CABB83B070B5BC
:104B100081B040F6D844844605A8C2F200040EC015
:104B200005AB20467F21624600937F2601F07AF88C
:104B300005467F28204628BF3546FFF74DFD28460D
:104B400001B0BDE8704003B07047000070B5102A96
:104B500010D28646002A55D012F0030312D00C461C
:104B600014F8016B7546012B05F8016B0ED1531E2D
:104B7000AE4634E041EA00039B0711D0864612F0AE
:104B80000303ECD113460C4629E000BF4E78022BFC
:104B90008EF801601CD1931E8C1C0EF1020E1EE0DB
:104BA000A2F1100E012303EB1E1313F003032BD00D
:104BB0000D68012B05604D6845608D688560CD6886
:104BC000C56027D1103100F1100372468C463FE0DA
:104BD0008E78D31ECC1C8EF802600EF1030E042AD0
:104BE00038BF70BD211FAEF1040200BF11F8046F81
:104BF000043B02F8046F4E7856708E789670CE782B
:104C0000D670F3D170BD00BF0346BEF1300F23D282
:104C10004BE000BF0D69022B05614D6945618D694F
:104C20008561CD69C56105D1203100F12003203AAD
:104C30008C460DE00B6A01F1300C03624B6A303A8E
:104C400043628B6A8362C96A00F13003C1626146C4
:104C50001C46BEF1300F28D30E6801F1400C1E60D7
:104C60004E6803F140045E608E68403A9E60CE68F4
:104C70000F2ADE600E691E614E695E618E699E615B
:104C8000CE69DE610E6A1E624E6A5E628E6A9E6246
:104C9000CE6ADE620E6B1E634E6B5E638E6B9E632E
:104CA000C96BD96361462346D6D8042A10D3131F93
:104CB000012101EB930111F003050DD0614651F87C
:104CC000046BA646012D4EF8046B07D11A4619E075
:104CD000A64661463EE700BF16E000BFDCF80410C0
:104CE000022D616006D10CF1080C0834083A6146C7
:104CF000A64609E0DCF808600CF10C0104F10C0E8A
:104D00000C3AA6608C4674460C2BFFF423AF00BF10
:104D1000DCF8001004F1100E2160DCF80410103AE9
:104D20006160DCF80810032AA160DCF80C300CF19B
:104D30001001E3608C467446EAD80BE7B0B58142B7
:104D400014D28B18984211D2002A45D012F00301D8
:104D500000EB020C42D09E461EF8015D644601291C
:104D600004F8015D3ED1511EA4464DE0A2B312F0FD
:104D7000030309D08C461CF8014B8646012B0EF824
:104D8000014B05D1531E14E08C468646134610E0B5
:104D90004D78022B457005D1931E01F1020C00F1F4
:104DA000020E06E001F1030C8978D31E00F1030E18
:104DB0008170042A38BFB0BDACF10401AEF1040229
:104DC00011F8045F043B02F8045F4D7855708D784C
:104DD0009570CD78D570F3D1B0BD00BF9E46114619
:104DE00012E000BF9E461EF8025D6446022904F8E8
:104DF000025D03D1911EA44606E000BF13F8035DD7
:104E0000D11E0CF8035D9E46042AE5D3ACF10402E2
:104E1000AEF102035D780439D5701D78957013F8F2
:104E2000015C557013F8025CA3F1040302F8045905
:104E3000F0D1D1E710B5042A1ED310F003031BD123
:104E4000CBB24FF00134102A03FB04FC16D3A2F1BD
:104E50001004012303EB141313F0030310D0012BF0
:104E6000C0E900CCC0F808C0C0F80CC00CD100F1FB
:104E7000100322461BE000BF864656E0864631E01E
:104E80000346302C16D22BE0022BC0E904CCC0F82C
:104E900018C0C0F81CC003D100F12003203A06E07E
:104EA00000F13003303AC0E908CCC0E90ACC9E4694
:104EB000302C15D303F1400E403AC3E900CCC3E9CE
:104EC00002CCC3E904CCC3E906CCC3E908CCC3E9EE
:104ED0000ACCC3E90CCCC3E90ECC0F2A7346E9D83F
:104EE000042A22D3734600BF141F042C4EF804CBAF
:104EF0001AD3A2F10804042CC3F804C00ED3A2F103
:104F00000C04042CC3F808C00CD303F1100E103AA3
:104F1000C3F80CC0032A7346E6D806E003F1080E76
:104F200002E000BF03F10C0E2246002A08BF10BDAC
:104F30005FFA81FC0446704611466246FBF732FB7D
:104F4000204610BD10B5044600202072FBF7A4F9DE
:104F500054F80C1F62684A601160C4E90044BDE85F
:104F60001040FBF79DB9000040F20C02C2F20002B3
:104F70001178814211460AD0114611F8103F834240
:104F800005D012F8201F814218BF002211460846A2
:104F900070470000F0B581B00E4640F20C01C2F23D
:104FA000000115460A780446B2420F460AD00F4661
:104FB00017F8100FB04205D011F8200FB04218BFFB
:104FC00000210F46FFF7B0FA043738460068B842B0
:104FD00008D00068B84205D00068B84202D0006826
:104FE000B842F3D1FFF7AEFA46F0800020722046B7
:104FF0002946082200F012FAFBF74EF9396844F806
:105000000C1F4C603C60676001B0BDE8F040FBF7EE
:1050100047B90000007AC009704700002DE9F0434D
:1050200081B0FBF739F940F2B405C2F20005698896
:1050300021B101B0BDE8F043FBF732B9A9680029FE
:10504000F7D080460846FDF755FB6E6840F6585984
:105050000138C2F2000996F8342059F8307002F095
:1050600007010329A7F1140108D196F835309842B9
:105070000AD902F0F70086F8340010E0B1420ED0F1
:105080002870696062E000BF434002F008042343D7
:1050900002F0F70286F8342018BFB14226D1FBF7A0
:1050A000FBF8314651F8142F4B6853601A6091F8A1
:1050B0002120096059F8323009EBC202934249605D
:1050C00004D1B16BAA6822EA0101A960FBF7E8F8F4
:1050D000686890F8341001F0F801033180F834105A
:1050E000404601B0BDE8F043FBF7DAB828706960CC
:1050F000FBF7D2F8696896F834208E4202F0F80186
:1051000012D096F8353041F00101120786F83410BC
:1051100009EBC30106F114020CD40B685A607361E9
:105120000A6006F1180209E041F0030186F8341024
:105130000AE000BF4B681A60B3614A60B36BAC68A9
:10514000116044EA0301A960FBF7AAF8FBF7A4F891
:10515000D7E900124A60116097F821103F6059F8B2
:10516000312009EBC1018A427F6004D1796AAA68C3
:1051700022EA0101A960FBF793F897F8200000F0FC
:10518000F800033087F8200040F6D040C2F200005B
:10519000017806F11C00002907F1080108D0FBF78F
:1051A00082F8404601B0BDE8F043FBF779B800BF94
:1051B000FBF779F8404601B0BDE8F043FBF770B863
:1051C00010B50446FBF768F840F2B40CC2F2000CCC
:1051D000DCF8042094F83430944203F0F80217D03D
:1051E00042F0010284F8342094F8352040F65851FA
:1051F000C2F2000101EBC202190704F114030FD43B
:1052000011684B606161136004F118030CE000BF8A
:1052100042F0030184F83410BDE81040FBF740B8B9
:1052200051680B60A1615360A16BDCF808401A6003
:105230002143CCF80810BDE81040FBF731B800005E
:10524000B0B50546FBF728F8294651F8142F4B68EE
:1052500053601A6091F8212040F658530960C2F259
:10526000000353F8324003EBC2029442496003D07A
:10527000BDE8B040FBF714B840F2B402C2F200023D
:10528000A96B936823EA01019160BDE8B040FBF788
:1052900007B8000070B515460A4602211C460646AE
:1052A000FFF778FE06F11400C6E905000020B5837B
:1052B000747270BD80B582B046F6A810C0F60000CA
:1052C000FFF724FC0AA0FFF721FC0FF2480C0FF2B5
:1052D000500E16A0042101220123CDE900ECFFF7B6
:1052E00015FC1BA002B0BDE88040FFF70FBC00BF5B
:1052F0002D205254202D20202020205468726561DA
:1053000064204F7065726174696E6720537973749D
:10531000656D0A0031373A33363A3030000000000C
:10532000417072202031203230323500202F207C15
:10533000205C202020202025642E25642E2564203A
:105340006275696C642025732025730A00000000D3
:105350002032303036202D203230323220436F70F0
:105360007972696768742062792052542D5468728A
:10537000656164207465616D0A00000082B080B5CB
:1053800082B08C46CDE9042304AB4FF0FF31624676
:10539000019300F047FC02B0BDE8804002B07047C6
:1053A000002848BF40420B2899BF04A151F82000B3
:1053B00046F6EB10C0F60000704700BFB169000868
:1053C000CE690008E3690008BB690008F9690008B4
:1053D000C3690008D4690008F3690008CA690008B5
:1053E000DB690008B4690008EB690008014600BFEA
:1053F0000A7862B14A784AB18A785AB1CA780431D7
:10540000002AF5D10139081A704700BF0131081A86
:10541000704700BF0231081A70470000002A08BF19
:105420007047F0B581B0C2F1000C00238646CC5C19
:10543000C454FCB10CEB03056C1C16D2CE18777863
:10544000C4186770E7B1AF1C0FD0B778A770EFB181
:1054500003350AD0F578E570F5B104330EF1040E8A
:105460001CEB0304A2F10402E1D101B0BDE8F0405D
:10547000704700BF0EF10103511E11D1F5E700BFC7
:105480000EF10203013A511E0AD1EEE70EF10303B9
:10549000023A511E04D1E8E7033A231D511EE4D01D
:1054A00004461846FBF786F8204601B0BDE8F040F8
:1054B0007047000010B540F65852C2F2000202F1E7
:1054C000080302F1100002F11801C2E90233C2E937
:1054D0000400C2E9061102F1200002F1280102F1E4
:1054E000300302F13804C2E90800C2E90A11C2E936
:1054F0000C33C2E90E4402F1400002F1480102F10E
:10550000500302F15804C2E91000C2E91211C2E9C5
:105510001433C2E9164402F1600002F1680102F19D
:10552000700302F17804C2E91800C2E91A11C2E955
:105530001C33C2E91E4402F1800002F1880102F12D
:10554000900302F19804C2E92000C2E92211C2E9E5
:105550002433C2E9264402F1A00002F1A80102F1BD
:10556000B00302F1B80440F2B40CC2E92800C2E969
:105570002A11C2E92C33C2E92E4402F1C00002F123
:10558000C80102F1D00302F1D804C2F2000C4FF0BE
:10559000000EC2E93000C2E93211C2E93433C2E977
:1055A000364402F1E00002F1E80102F1F00302F1F9
:1055B000F804ACF802E0C2E90022C2E93800C2E90E
:1055C0003A11C2E93C33C2E93E44CCF808E010BDD0
:1055D00070B540F2B405C2F20005A868FDF78AF87C
:1055E00040F65856C2F2000606EBC00050F8084CD0
:1055F000A4F114006860FAF74FFED4E900124A6083
:10560000116094F82110246056F8312006EBC10196
:105610008A42646004D1616AAA6822EA0101A96031
:10562000FAF73EFE032104F1080084F82010BDE8DB
:105630007040FAF77EBE000040F2C000C2F20000E7
:10564000011DC0E9011170477047000040F23C01A4
:10565000C2F200010A6840F8142F506008604160EF
:105660007047000040F23C05C2F200052868A842DD
:1056700003D100BFFEE700BF28460646A8422846E1
:1056800003D1FAE72E68AE42F6D0A6F11404FAF779
:1056900003FED6E900124A601160C6E90066FAF717
:1056A000FFFDF66D2046FFF7B5FC012802D120462C
:1056B000FFF748FC002EE5D02046B047E2E70000A7
:1056C000B0B586B004AC12A120460022FFF756FE0A
:1056D00040F658628021C2F2000240F2D8751F20C5
:1056E000CDE90021C2F2000545F265624FF0200CC1
:1056F0000290C0F60002284621460023CDF80CC0D7
:1057000000F00AF8284600F099F806B0B0BD00BFD6
:105710007469646C652564002DE9F04782B00DF171
:10572000280A16460A46DDF834909AE880050121D9
:105730001D460446FFF72EFC04F11400C4E90500E1
:10574000384623214246C4E90865C4E90A78FFF7D0
:1057500071FB04F120030FCB1A4442F22D73043A7B
:10576000C0F60003FFF794F942F26972E061002786
:1057700004F14400C0F600022146234684F835A017
:10578000C4E90E79C4F84090276384F83470C4E902
:105790001C770097019700F0ADF9002002B0BDE83A
:1057A000F087000080B500F075F8BDE8804000F09B
:1057B00007B8000040F2B800C2F20000006870476D
:1057C000F0B581B040F2B801C2F200010C6800905F
:1057D000FAF762FD054694F83400002100F0050058
:1057E0000128216313D1FAF757FD06462046FFF73B
:1057F00027FD94F8340000F0F800023084F83400FB
:1058000004F1440000F0F2F93046FAF749FD04F1E2
:1058100044066A4630460021002700F019F9304658
:1058200000F082F92846FAF73BFDFFF7F7FB206B03
:10583000811C04BF2763002001B0F0BDB0B5044651
:1058400090F83500012101FA00F0A063022084F8ED
:105850003400FAF721FD2246A16952F8143F0546AB
:1058600004F1440059600B60A261126000F0BEF9BF
:105870002046FFF7A5FC2846FAF712FD40F2B800D3
:10588000C2F200000068002818BFFFF7C7FB002025
:10589000B0BD000040EAE0707047000040F6DC60F8
:1058A000C2F200000068704710B5FAF7F5FC40F648
:1058B000DC61C2F200010A680446501C0860FFF770
:1058C00079FF016C0139016406D02046FAF7E8FC43
:1058D000BDE8104000F012B8C16B90F834200164AC
:1058E00042F0080180F834102046FAF7D9FCFFF79F
:1058F00095FBBDE8104000F001B800002DE9F04F25
:1059000083B00DF10408CDE90188FFF7C7FF054614
:10591000FAF7C2FC40F2C004C2F20004214651F87A
:10592000046F00908E4200F089804FF6FE79C7F632
:10593000FF796FF0004B16E01F46034620685E605B
:105940000130206016F80B0C336040F0010006F8BF
:105950000B0C50463E607760FAF7A2FC204650F8E8
:10596000046F86426AD07069281A484566D8D6E91D
:10597000002116F80B0C51600A60810736605CBF8D
:1059800000F0FC0006F80B0C019846603060D6E988
:1059900002100196C6F804808847FFF77FFF01993F
:1059A00005464145DAD0D6E900104860016016F896
:1059B0000B0C366000F0030103297660CED100F0B5
:1059C000FE0006F80B0CFAF767FC824616F80B0C83
:1059D000D6E9002100F0FE0051600A603660766072
:1059E00006F80B0CFFF75AFF3169A2680144231D2A
:1059F0007161186893429FD047697F1A01D05F4553
:105A00009AD30368904217D05F697F1A01D05F452F
:105A100012D3186893428FD047697F1A02D05F452E
:105A2000FFF48AAF0368904206D05F697F1AE0D026
:105A30004F450746DDD881E707467FE70098FAF72C
:105A40002FFC03B000F000B830BCBDE8C08F0000F0
:105A500070B514460E460546FAF71EFC052E07D80B
:105A6000DFE806F00424141C0A2A00BF21686962DA
:105A7000FAF716FC002070BD697AC9070CBF002137
:105A800001212160FAF70CFC002070BD697A01F059
:105A9000FD016972FAF704FC002070BD697A41F0DB
:105AA00002016972FAF7FCFB002070BD696A21608F
:105AB000FAF7F6FB002070BDA96A2160FAF7F0FB47
:105AC000002070BD10B50446FAF7E6FB2246A16936
:105AD00052F8143F59600B60617AA26101F0FE0137
